{
  "contractName": "ServiceRegistry",
  "abi": [
    {
      "constant": true,
      "inputs": [],
      "name": "owner",
      "outputs": [
        {
          "name": "",
          "type": "address"
        }
      ],
      "payable": false,
      "stateMutability": "view",
      "type": "function",
      "signature": "0x8da5cb5b"
    },
    {
      "constant": true,
      "inputs": [
        {
          "name": "",
          "type": "address"
        },
        {
          "name": "",
          "type": "uint256"
        }
      ],
      "name": "myservices",
      "outputs": [
        {
          "name": "",
          "type": "uint256"
        }
      ],
      "payable": false,
      "stateMutability": "view",
      "type": "function",
      "signature": "0x9748944a"
    },
    {
      "inputs": [],
      "payable": false,
      "stateMutability": "nonpayable",
      "type": "constructor",
      "signature": "constructor"
    },
    {
      "constant": true,
      "inputs": [
        {
          "name": "str",
          "type": "string"
        }
      ],
      "name": "toLower",
      "outputs": [
        {
          "name": "",
          "type": "string"
        }
      ],
      "payable": false,
      "stateMutability": "pure",
      "type": "function",
      "signature": "0x9416b423"
    },
    {
      "constant": true,
      "inputs": [
        {
          "name": "pattern",
          "type": "string"
        },
        {
          "name": "text",
          "type": "string"
        }
      ],
      "name": "contains",
      "outputs": [
        {
          "name": "",
          "type": "bool"
        }
      ],
      "payable": false,
      "stateMutability": "pure",
      "type": "function",
      "signature": "0x3fb18aec"
    },
    {
      "constant": false,
      "inputs": [
        {
          "name": "_name",
          "type": "string"
        },
        {
          "name": "_category",
          "type": "string"
        },
        {
          "name": "_description",
          "type": "string"
        },
        {
          "name": "_price",
          "type": "uint256"
        },
        {
          "name": "additionalInfo",
          "type": "string"
        },
        {
          "name": "fileName",
          "type": "string"
        },
        {
          "name": "fileContent",
          "type": "string"
        }
      ],
      "name": "addService",
      "outputs": [
        {
          "components": [
            {
              "name": "id",
              "type": "uint64"
            },
            {
              "name": "owner",
              "type": "address"
            },
            {
              "name": "name",
              "type": "string"
            },
            {
              "name": "category",
              "type": "string"
            },
            {
              "name": "description",
              "type": "string"
            },
            {
              "name": "price",
              "type": "uint256"
            },
            {
              "name": "ratingTotal",
              "type": "uint256"
            },
            {
              "name": "ratingCount",
              "type": "uint256"
            },
            {
              "name": "timestamp",
              "type": "uint256"
            }
          ],
          "name": "",
          "type": "tuple"
        }
      ],
      "payable": false,
      "stateMutability": "nonpayable",
      "type": "function",
      "signature": "0x94b59e32"
    },
    {
      "constant": true,
      "inputs": [],
      "name": "getMyLatestServiceId",
      "outputs": [
        {
          "name": "",
          "type": "uint256"
        }
      ],
      "payable": false,
      "stateMutability": "view",
      "type": "function",
      "signature": "0x9bb2ca71"
    },
    {
      "constant": true,
      "inputs": [],
      "name": "getAllServices",
      "outputs": [
        {
          "name": "",
          "type": "uint64"
        },
        {
          "components": [
            {
              "name": "id",
              "type": "uint64"
            },
            {
              "name": "owner",
              "type": "address"
            },
            {
              "name": "name",
              "type": "string"
            },
            {
              "name": "category",
              "type": "string"
            },
            {
              "name": "description",
              "type": "string"
            },
            {
              "name": "price",
              "type": "uint256"
            },
            {
              "name": "ratingTotal",
              "type": "uint256"
            },
            {
              "name": "ratingCount",
              "type": "uint256"
            },
            {
              "name": "timestamp",
              "type": "uint256"
            }
          ],
          "name": "",
          "type": "tuple[]"
        }
      ],
      "payable": false,
      "stateMutability": "view",
      "type": "function",
      "signature": "0x21fe0f30"
    },
    {
      "constant": true,
      "inputs": [
        {
          "name": "size",
          "type": "uint64"
        },
        {
          "name": "page",
          "type": "uint64"
        }
      ],
      "name": "getAllServices",
      "outputs": [
        {
          "name": "",
          "type": "uint256"
        },
        {
          "components": [
            {
              "name": "id",
              "type": "uint64"
            },
            {
              "name": "owner",
              "type": "address"
            },
            {
              "name": "name",
              "type": "string"
            },
            {
              "name": "category",
              "type": "string"
            },
            {
              "name": "description",
              "type": "string"
            },
            {
              "name": "price",
              "type": "uint256"
            },
            {
              "name": "ratingTotal",
              "type": "uint256"
            },
            {
              "name": "ratingCount",
              "type": "uint256"
            },
            {
              "name": "timestamp",
              "type": "uint256"
            }
          ],
          "name": "",
          "type": "tuple[]"
        }
      ],
      "payable": false,
      "stateMutability": "view",
      "type": "function",
      "signature": "0x3a70a820"
    },
    {
      "constant": true,
      "inputs": [
        {
          "name": "query",
          "type": "string"
        }
      ],
      "name": "findServices",
      "outputs": [
        {
          "name": "",
          "type": "uint256"
        },
        {
          "components": [
            {
              "name": "id",
              "type": "uint64"
            },
            {
              "name": "owner",
              "type": "address"
            },
            {
              "name": "name",
              "type": "string"
            },
            {
              "name": "category",
              "type": "string"
            },
            {
              "name": "description",
              "type": "string"
            },
            {
              "name": "price",
              "type": "uint256"
            },
            {
              "name": "ratingTotal",
              "type": "uint256"
            },
            {
              "name": "ratingCount",
              "type": "uint256"
            },
            {
              "name": "timestamp",
              "type": "uint256"
            }
          ],
          "name": "",
          "type": "tuple[]"
        }
      ],
      "payable": false,
      "stateMutability": "view",
      "type": "function",
      "signature": "0x176e3660"
    },
    {
      "constant": true,
      "inputs": [
        {
          "name": "id",
          "type": "uint64"
        }
      ],
      "name": "getServiceDetail",
      "outputs": [
        {
          "components": [
            {
              "name": "id",
              "type": "uint64"
            },
            {
              "name": "owner",
              "type": "address"
            },
            {
              "name": "name",
              "type": "string"
            },
            {
              "name": "category",
              "type": "string"
            },
            {
              "name": "description",
              "type": "string"
            },
            {
              "name": "price",
              "type": "uint256"
            },
            {
              "name": "ratingTotal",
              "type": "uint256"
            },
            {
              "name": "ratingCount",
              "type": "uint256"
            },
            {
              "name": "timestamp",
              "type": "uint256"
            }
          ],
          "name": "generalInfo",
          "type": "tuple"
        },
        {
          "name": "additionalInfo",
          "type": "string"
        },
        {
          "name": "allowed",
          "type": "bool"
        }
      ],
      "payable": false,
      "stateMutability": "view",
      "type": "function",
      "signature": "0xf76c7fde"
    },
    {
      "constant": true,
      "inputs": [
        {
          "name": "id",
          "type": "uint64"
        }
      ],
      "name": "getServiceDescription",
      "outputs": [
        {
          "components": [
            {
              "name": "version",
              "type": "uint256"
            },
            {
              "name": "fileName",
              "type": "string"
            },
            {
              "name": "fileContent",
              "type": "string"
            },
            {
              "name": "timestamp",
              "type": "uint256"
            }
          ],
          "name": "serviceDescription",
          "type": "tuple"
        }
      ],
      "payable": false,
      "stateMutability": "view",
      "type": "function",
      "signature": "0x8d9f654c"
    },
    {
      "constant": true,
      "inputs": [
        {
          "name": "id",
          "type": "uint64"
        },
        {
          "name": "version",
          "type": "uint64"
        }
      ],
      "name": "getServiceDescriptionSpec",
      "outputs": [
        {
          "components": [
            {
              "name": "version",
              "type": "uint256"
            },
            {
              "name": "fileName",
              "type": "string"
            },
            {
              "name": "fileContent",
              "type": "string"
            },
            {
              "name": "timestamp",
              "type": "uint256"
            }
          ],
          "name": "serviceDesciption",
          "type": "tuple"
        }
      ],
      "payable": false,
      "stateMutability": "view",
      "type": "function",
      "signature": "0x02765f2f"
    },
    {
      "constant": false,
      "inputs": [
        {
          "name": "id",
          "type": "uint64"
        }
      ],
      "name": "deleteService",
      "outputs": [],
      "payable": false,
      "stateMutability": "nonpayable",
      "type": "function",
      "signature": "0x8a32a325"
    },
    {
      "constant": false,
      "inputs": [
        {
          "name": "id",
          "type": "uint64"
        }
      ],
      "name": "payForService",
      "outputs": [],
      "payable": true,
      "stateMutability": "payable",
      "type": "function",
      "signature": "0x445ea813"
    },
    {
      "constant": false,
      "inputs": [
        {
          "name": "id",
          "type": "uint64"
        },
        {
          "name": "fileName",
          "type": "string"
        },
        {
          "name": "fileDescription",
          "type": "string"
        }
      ],
      "name": "updateDescription",
      "outputs": [],
      "payable": false,
      "stateMutability": "nonpayable",
      "type": "function",
      "signature": "0xabf818f6"
    },
    {
      "constant": false,
      "inputs": [
        {
          "name": "id",
          "type": "uint64"
        },
        {
          "name": "rate",
          "type": "uint64"
        }
      ],
      "name": "rateService",
      "outputs": [],
      "payable": false,
      "stateMutability": "nonpayable",
      "type": "function",
      "signature": "0x89f0a0c8"
    },
    {
      "constant": true,
      "inputs": [
        {
          "name": "id",
          "type": "uint64"
        }
      ],
      "name": "getUserRate",
      "outputs": [
        {
          "name": "",
          "type": "uint64"
        }
      ],
      "payable": false,
      "stateMutability": "view",
      "type": "function",
      "signature": "0x63fca110"
    }
  ],
  "bytecode": "0x608060405233600860006101000a81548173ffffffffffffffffffffffffffffffffffffffff021916908373ffffffffffffffffffffffffffffffffffffffff16021790555034801561005157600080fd5b506000600160006101000a81548167ffffffffffffffff021916908367ffffffffffffffff1602179055506000600160086101000a81548167ffffffffffffffff021916908367ffffffffffffffff1602179055506148be806100b56000396000f3fe6080604052600436106100f1576000357c0100000000000000000000000000000000000000000000000000000000900463ffffffff16806302765f2f146100f6578063176e36601461013357806321fe0f30146101715780633a70a8201461019d5780633fb18aec146101db578063445ea8131461021857806363fca1101461023457806389f0a0c8146102715780638a32a3251461029a5780638d9f654c146102c35780638da5cb5b146103005780639416b4231461032b57806394b59e32146103685780639748944a146103a55780639bb2ca71146103e2578063abf818f61461040d578063f76c7fde14610436575b600080fd5b34801561010257600080fd5b5061011d60048036036101189190810190614112565b610475565b60405161012a91906145e0565b60405180910390f35b34801561013f57600080fd5b5061015a60048036036101559190810190613e8f565b61083f565b604051610168929190614684565b60405180910390f35b34801561017d57600080fd5b50610186610c17565b6040516101949291906146cf565b60405180910390f35b3480156101a957600080fd5b506101c460048036036101bf9190810190614112565b610f2d565b6040516101d2929190614684565b60405180910390f35b3480156101e757600080fd5b5061020260048036036101fd9190810190613ed0565b6112d6565b60405161020f9190614543565b60405180910390f35b610232600480360361022d919081019061406a565b611467565b005b34801561024057600080fd5b5061025b6004803603610256919081019061406a565b6119c7565b60405161026891906146b4565b60405180910390f35b34801561027d57600080fd5b5061029860048036036102939190810190614112565b611a49565b005b3480156102a657600080fd5b506102c160048036036102bc919081019061406a565b611f4d565b005b3480156102cf57600080fd5b506102ea60048036036102e5919081019061406a565b612804565b6040516102f791906145e0565b60405180910390f35b34801561030c57600080fd5b50610315612b94565b6040516103229190614528565b60405180910390f35b34801561033757600080fd5b50610352600480360361034d9190810190613e8f565b612bba565b60405161035f919061455e565b60405180910390f35b34801561037457600080fd5b5061038f600480360361038a9190810190613f3c565b612ee5565b60405161039c9190614602565b60405180910390f35b3480156103b157600080fd5b506103cc60048036036103c79190810190613e53565b613371565b6040516103d99190614669565b60405180910390f35b3480156103ee57600080fd5b506103f76133a1565b6040516104049190614669565b60405180910390f35b34801561041957600080fd5b50610434600480360361042f9190810190614093565b613444565b005b34801561044257600080fd5b5061045d6004803603610458919081019061406a565b61363c565b60405161046c93929190614624565b60405180910390f35b61047d613b51565b6000600260008567ffffffffffffffff1667ffffffffffffffff16815260200190815260200160002060009054906101000a900467ffffffffffffffff1690506000600660003373ffffffffffffffffffffffffffffffffffffffff1673ffffffffffffffffffffffffffffffffffffffff16815260200190815260200160002060008667ffffffffffffffff1667ffffffffffffffff16815260200190815260200160002060009054906101000a900460ff16806105b157503373ffffffffffffffffffffffffffffffffffffffff1660008367ffffffffffffffff1681548110151561056757fe5b906000526020600020906008020160000160089054906101000a900473ffffffffffffffffffffffffffffffffffffffff1673ffffffffffffffffffffffffffffffffffffffff16145b806105e557506000808367ffffffffffffffff168154811015156105d157fe5b906000526020600020906008020160040154145b9050801515610629576040517f08c379a0000000000000000000000000000000000000000000000000000000008152600401610620906145a0565b60405180910390fd5b600460008667ffffffffffffffff1667ffffffffffffffff168152602001908152602001600020805490508467ffffffffffffffff1611158015610677575060008467ffffffffffffffff16115b151561068257600080fd5b600460008667ffffffffffffffff1667ffffffffffffffff1681526020019081526020016000206001850367ffffffffffffffff168154811015156106c357fe5b90600052602060002090600402016080604051908101604052908160008201548152602001600182018054600181600116156101000203166002900480601f0160208091040260200160405190810160405280929190818152602001828054600181600116156101000203166002900480156107805780601f1061075557610100808354040283529160200191610780565b820191906000526020600020905b81548152906001019060200180831161076357829003601f168201915b50505050508152602001600282018054600181600116156101000203166002900480601f0160208091040260200160405190810160405280929190818152602001828054600181600116156101000203166002900480156108225780601f106107f757610100808354040283529160200191610822565b820191906000526020600020905b81548152906001019060200180831161080557829003601f168201915b505050505081526020016003820154815250509250505092915050565b6000606080603260405190808252806020026020018201604052801561087f57816020015b61086c613b7a565b8152602001906001900390816108645790505b5090506000809050606061089286612bba565b905060008090505b600080549050811015610c08576108af613be7565b6000828154811015156108be57fe5b906000526020600020906008020161012060405190810160405290816000820160009054906101000a900467ffffffffffffffff1667ffffffffffffffff1667ffffffffffffffff1681526020016000820160089054906101000a900473ffffffffffffffffffffffffffffffffffffffff1673ffffffffffffffffffffffffffffffffffffffff1673ffffffffffffffffffffffffffffffffffffffff168152602001600182018054600181600116156101000203166002900480601f0160208091040260200160405190810160405280929190818152602001828054600181600116156101000203166002900480156109fa5780601f106109cf576101008083540402835291602001916109fa565b820191906000526020600020905b8154815290600101906020018083116109dd57829003601f168201915b50505050508152602001600282018054600181600116156101000203166002900480601f016020809104026020016040519081016040528092919081815260200182805460018160011615610100020316600290048015610a9c5780601f10610a7157610100808354040283529160200191610a9c565b820191906000526020600020905b815481529060010190602001808311610a7f57829003601f168201915b50505050508152602001600382018054600181600116156101000203166002900480601f016020809104026020016040519081016040528092919081815260200182805460018160011615610100020316600290048015610b3e5780601f10610b1357610100808354040283529160200191610b3e565b820191906000526020600020905b815481529060010190602001808311610b2157829003601f168201915b505050505081526020016004820154815260200160058201548152602001600682015481526020016007820154815250509050610b8783610b828360400151612bba565b6112d6565b80610ba45750610ba383610b9e8360800151612bba565b6112d6565b5b80610bc15750610bc083610bbb8360600151612bba565b6112d6565b5b15610bfa57808585815181101515610bd557fe5b9060200190602002018190525083806001019450506032841415610bf95750610c08565b5b50808060010191505061089a565b50818394509450505050915091565b60006060600160009054906101000a900467ffffffffffffffff16600080805480602002602001604051908101604052809291908181526020016000905b82821015610f1f578382906000526020600020906008020161012060405190810160405290816000820160009054906101000a900467ffffffffffffffff1667ffffffffffffffff1667ffffffffffffffff1681526020016000820160089054906101000a900473ffffffffffffffffffffffffffffffffffffffff1673ffffffffffffffffffffffffffffffffffffffff1673ffffffffffffffffffffffffffffffffffffffff168152602001600182018054600181600116156101000203166002900480601f016020809104026020016040519081016040528092919081815260200182805460018160011615610100020316600290048015610d9b5780601f10610d7057610100808354040283529160200191610d9b565b820191906000526020600020905b815481529060010190602001808311610d7e57829003601f168201915b50505050508152602001600282018054600181600116156101000203166002900480601f016020809104026020016040519081016040528092919081815260200182805460018160011615610100020316600290048015610e3d5780601f10610e1257610100808354040283529160200191610e3d565b820191906000526020600020905b815481529060010190602001808311610e2057829003601f168201915b50505050508152602001600382018054600181600116156101000203166002900480601f016020809104026020016040519081016040528092919081815260200182805460018160011615610100020316600290048015610edf5780601f10610eb457610100808354040283529160200191610edf565b820191906000526020600020905b815481529060010190602001808311610ec257829003601f168201915b5050505050815260200160048201548152602001600582015481526020016006820154815260200160078201548152505081526020019060010190610c55565b505050509050915091509091565b600060606000848402905060608567ffffffffffffffff16604051908082528060200260200182016040528015610f7e57816020015b610f6b613b7a565b815260200190600190039081610f635790505b50905060008080549050878888020167ffffffffffffffff1611610fac578667ffffffffffffffff16610fc1565b86860267ffffffffffffffff16600080549050035b905060008090505b818110156112c5576000818567ffffffffffffffff1601815481101515610fec57fe5b906000526020600020906008020161012060405190810160405290816000820160009054906101000a900467ffffffffffffffff1667ffffffffffffffff1667ffffffffffffffff1681526020016000820160089054906101000a900473ffffffffffffffffffffffffffffffffffffffff1673ffffffffffffffffffffffffffffffffffffffff1673ffffffffffffffffffffffffffffffffffffffff168152602001600182018054600181600116156101000203166002900480601f0160208091040260200160405190810160405280929190818152602001828054600181600116156101000203166002900480156111285780601f106110fd57610100808354040283529160200191611128565b820191906000526020600020905b81548152906001019060200180831161110b57829003601f168201915b50505050508152602001600282018054600181600116156101000203166002900480601f0160208091040260200160405190810160405280929190818152602001828054600181600116156101000203166002900480156111ca5780601f1061119f576101008083540402835291602001916111ca565b820191906000526020600020905b8154815290600101906020018083116111ad57829003601f168201915b50505050508152602001600382018054600181600116156101000203166002900480601f01602080910402602001604051908101604052809291908181526020018280546001816001161561010002031660029004801561126c5780601f106112415761010080835404028352916020019161126c565b820191906000526020600020905b81548152906001019060200180831161124f57829003601f168201915b5050505050815260200160048201548152602001600582015481526020016006820154815260200160078201548152505083828151811015156112ab57fe5b906020019060200201819052508080600101915050610fc9565b508082945094505050509250929050565b60006060839050606083905060008090508151835111156112fd5760009350505050611461565b60008090505b8351835103811115156114595760006001905060008090505b855181101561143a57858181518110151561133357fe5b9060200101517f010000000000000000000000000000000000000000000000000000000000000090047f0100000000000000000000000000000000000000000000000000000000000000027effffffffffffffffffffffffffffffffffffffffffffffffffffffffffffff1916858285018151811015156113b057fe5b9060200101517f010000000000000000000000000000000000000000000000000000000000000090047f0100000000000000000000000000000000000000000000000000000000000000027effffffffffffffffffffffffffffffffffffffffffffffffffffffffffffff191614151561142d576000915061143a565b808060010191505061131c565b50801561144b576001925050611459565b508080600101915050611303565b508093505050505b92915050565b6000600260008367ffffffffffffffff1667ffffffffffffffff16815260200190815260200160002060009054906101000a900467ffffffffffffffff1690506114af613be7565b60008267ffffffffffffffff168154811015156114c857fe5b906000526020600020906008020161012060405190810160405290816000820160009054906101000a900467ffffffffffffffff1667ffffffffffffffff1667ffffffffffffffff1681526020016000820160089054906101000a900473ffffffffffffffffffffffffffffffffffffffff1673ffffffffffffffffffffffffffffffffffffffff1673ffffffffffffffffffffffffffffffffffffffff168152602001600182018054600181600116156101000203166002900480601f0160208091040260200160405190810160405280929190818152602001828054600181600116156101000203166002900480156116045780601f106115d957610100808354040283529160200191611604565b820191906000526020600020905b8154815290600101906020018083116115e757829003601f168201915b50505050508152602001600282018054600181600116156101000203166002900480601f0160208091040260200160405190810160405280929190818152602001828054600181600116156101000203166002900480156116a65780601f1061167b576101008083540402835291602001916116a6565b820191906000526020600020905b81548152906001019060200180831161168957829003601f168201915b50505050508152602001600382018054600181600116156101000203166002900480601f0160208091040260200160405190810160405280929190818152602001828054600181600116156101000203166002900480156117485780601f1061171d57610100808354040283529160200191611748565b820191906000526020600020905b81548152906001019060200180831161172b57829003601f168201915b505050505081526020016004820154815260200160058201548152602001600682015481526020016007820154815250509050600660003373ffffffffffffffffffffffffffffffffffffffff1673ffffffffffffffffffffffffffffffffffffffff16815260200190815260200160002060008467ffffffffffffffff1667ffffffffffffffff16815260200190815260200160002060009054906101000a900460ff168061186d57503373ffffffffffffffffffffffffffffffffffffffff1660008367ffffffffffffffff1681548110151561182357fe5b906000526020600020906008020160000160089054906101000a900473ffffffffffffffffffffffffffffffffffffffff1673ffffffffffffffffffffffffffffffffffffffff16145b806118a157506000808367ffffffffffffffff1681548110151561188d57fe5b906000526020600020906008020160040154145b1515156118ad57600080fd5b8060a0015134101515156118f6576040517f08c379a00000000000000000000000000000000000000000000000000000000081526004016118ed90614580565b60405180910390fd5b806020015173ffffffffffffffffffffffffffffffffffffffff166108fc8260a001519081150290604051600060405180830381858888f19350505050158015611944573d6000803e3d6000fd5b506001600660003373ffffffffffffffffffffffffffffffffffffffff1673ffffffffffffffffffffffffffffffffffffffff16815260200190815260200160002060008567ffffffffffffffff1667ffffffffffffffff16815260200190815260200160002060006101000a81548160ff021916908315150217905550505050565b6000600560008367ffffffffffffffff1667ffffffffffffffff16815260200190815260200160002060003373ffffffffffffffffffffffffffffffffffffffff1673ffffffffffffffffffffffffffffffffffffffff16815260200190815260200160002060009054906101000a900467ffffffffffffffff169050919050565b6000600260008467ffffffffffffffff1667ffffffffffffffff16815260200190815260200160002060009054906101000a900467ffffffffffffffff1690506000600660003373ffffffffffffffffffffffffffffffffffffffff1673ffffffffffffffffffffffffffffffffffffffff16815260200190815260200160002060008567ffffffffffffffff1667ffffffffffffffff16815260200190815260200160002060009054906101000a900460ff1680611b3157506000808367ffffffffffffffff16815481101515611b1d57fe5b906000526020600020906008020160040154145b8015611bb357503373ffffffffffffffffffffffffffffffffffffffff1660008367ffffffffffffffff16815481101515611b6857fe5b906000526020600020906008020160000160089054906101000a900473ffffffffffffffffffffffffffffffffffffffff1673ffffffffffffffffffffffffffffffffffffffff1614155b905060018367ffffffffffffffff1610158015611bdb5750600a8367ffffffffffffffff1611155b1515611be657600080fd5b801515611c28576040517f08c379a0000000000000000000000000000000000000000000000000000000008152600401611c1f906145a0565b60405180910390fd5b6000600560008667ffffffffffffffff1667ffffffffffffffff16815260200190815260200160002060003373ffffffffffffffffffffffffffffffffffffffff1673ffffffffffffffffffffffffffffffffffffffff16815260200190815260200160002060009054906101000a900467ffffffffffffffff1667ffffffffffffffff161415611dbf578267ffffffffffffffff1660008367ffffffffffffffff16815481101515611cd757fe5b90600052602060002090600802016005016000828254019250508190555060008267ffffffffffffffff16815481101515611d0e57fe5b90600052602060002090600802016006016000815480929190600101919050555082600560008667ffffffffffffffff1667ffffffffffffffff16815260200190815260200160002060003373ffffffffffffffffffffffffffffffffffffffff1673ffffffffffffffffffffffffffffffffffffffff16815260200190815260200160002060006101000a81548167ffffffffffffffff021916908367ffffffffffffffff160217905550611f47565b600560008567ffffffffffffffff1667ffffffffffffffff16815260200190815260200160002060003373ffffffffffffffffffffffffffffffffffffffff1673ffffffffffffffffffffffffffffffffffffffff16815260200190815260200160002060009054906101000a900467ffffffffffffffff1667ffffffffffffffff1660008367ffffffffffffffff16815481101515611e5b57fe5b9060005260206000209060080201600501600082825403925050819055508267ffffffffffffffff1660008367ffffffffffffffff16815481101515611e9d57fe5b90600052602060002090600802016005016000828254019250508190555082600560008667ffffffffffffffff1667ffffffffffffffff16815260200190815260200160002060003373ffffffffffffffffffffffffffffffffffffffff1673ffffffffffffffffffffffffffffffffffffffff16815260200190815260200160002060006101000a81548167ffffffffffffffff021916908367ffffffffffffffff1602179055505b50505050565b6000600260008367ffffffffffffffff1667ffffffffffffffff16815260200190815260200160002060009054906101000a900467ffffffffffffffff169050611f95613be7565b60008267ffffffffffffffff16815481101515611fae57fe5b906000526020600020906008020161012060405190810160405290816000820160009054906101000a900467ffffffffffffffff1667ffffffffffffffff1667ffffffffffffffff1681526020016000820160089054906101000a900473ffffffffffffffffffffffffffffffffffffffff1673ffffffffffffffffffffffffffffffffffffffff1673ffffffffffffffffffffffffffffffffffffffff168152602001600182018054600181600116156101000203166002900480601f0160208091040260200160405190810160405280929190818152602001828054600181600116156101000203166002900480156120ea5780601f106120bf576101008083540402835291602001916120ea565b820191906000526020600020905b8154815290600101906020018083116120cd57829003601f168201915b50505050508152602001600282018054600181600116156101000203166002900480601f01602080910402602001604051908101604052809291908181526020018280546001816001161561010002031660029004801561218c5780601f106121615761010080835404028352916020019161218c565b820191906000526020600020905b81548152906001019060200180831161216f57829003601f168201915b50505050508152602001600382018054600181600116156101000203166002900480601f01602080910402602001604051908101604052809291908181526020018280546001816001161561010002031660029004801561222e5780601f106122035761010080835404028352916020019161222e565b820191906000526020600020905b81548152906001019060200180831161221157829003601f168201915b505050505081526020016004820154815260200160058201548152602001600682015481526020016007820154815250509050806020015173ffffffffffffffffffffffffffffffffffffffff163373ffffffffffffffffffffffffffffffffffffffff1614151561229f57600080fd5b6122a7613be7565b600060018060009054906101000a900467ffffffffffffffff160367ffffffffffffffff168154811015156122d857fe5b906000526020600020906008020161012060405190810160405290816000820160009054906101000a900467ffffffffffffffff1667ffffffffffffffff1667ffffffffffffffff1681526020016000820160089054906101000a900473ffffffffffffffffffffffffffffffffffffffff1673ffffffffffffffffffffffffffffffffffffffff1673ffffffffffffffffffffffffffffffffffffffff168152602001600182018054600181600116156101000203166002900480601f0160208091040260200160405190810160405280929190818152602001828054600181600116156101000203166002900480156124145780601f106123e957610100808354040283529160200191612414565b820191906000526020600020905b8154815290600101906020018083116123f757829003601f168201915b50505050508152602001600282018054600181600116156101000203166002900480601f0160208091040260200160405190810160405280929190818152602001828054600181600116156101000203166002900480156124b65780601f1061248b576101008083540402835291602001916124b6565b820191906000526020600020905b81548152906001019060200180831161249957829003601f168201915b50505050508152602001600382018054600181600116156101000203166002900480601f0160208091040260200160405190810160405280929190818152602001828054600181600116156101000203166002900480156125585780601f1061252d57610100808354040283529160200191612558565b820191906000526020600020905b81548152906001019060200180831161253b57829003601f168201915b5050505050815260200160048201548152602001600582015481526020016006820154815260200160078201548152505090508060008467ffffffffffffffff168154811015156125a557fe5b906000526020600020906008020160008201518160000160006101000a81548167ffffffffffffffff021916908367ffffffffffffffff16021790555060208201518160000160086101000a81548173ffffffffffffffffffffffffffffffffffffffff021916908373ffffffffffffffffffffffffffffffffffffffff1602179055506040820151816001019080519060200190612645929190613c54565b506060820151816002019080519060200190612662929190613c54565b50608082015181600301908051906020019061267f929190613c54565b5060a0820151816004015560c0820151816005015560e082015181600601556101008201518160070155905050600080548015156126b957fe5b6001900381819060005260206000209060080201600080820160006101000a81549067ffffffffffffffff02191690556000820160086101000a81549073ffffffffffffffffffffffffffffffffffffffff02191690556001820160006127209190613cd4565b6002820160006127309190613cd4565b6003820160006127409190613cd4565b6004820160009055600582016000905560068201600090556007820160009055505090558260026000836000015167ffffffffffffffff1667ffffffffffffffff16815260200190815260200160002060006101000a81548167ffffffffffffffff021916908367ffffffffffffffff1602179055506001600081819054906101000a900467ffffffffffffffff16809291906001900391906101000a81548167ffffffffffffffff021916908367ffffffffffffffff1602179055505050505050565b61280c613b51565b6000600260008467ffffffffffffffff1667ffffffffffffffff16815260200190815260200160002060009054906101000a900467ffffffffffffffff1690506000600660003373ffffffffffffffffffffffffffffffffffffffff1673ffffffffffffffffffffffffffffffffffffffff16815260200190815260200160002060008567ffffffffffffffff1667ffffffffffffffff16815260200190815260200160002060009054906101000a900460ff168061294057503373ffffffffffffffffffffffffffffffffffffffff1660008367ffffffffffffffff168154811015156128f657fe5b906000526020600020906008020160000160089054906101000a900473ffffffffffffffffffffffffffffffffffffffff1673ffffffffffffffffffffffffffffffffffffffff16145b8061297457506000808367ffffffffffffffff1681548110151561296057fe5b906000526020600020906008020160040154145b90508015156129b8576040517f08c379a00000000000000000000000000000000000000000000000000000000081526004016129af906145a0565b60405180910390fd5b600460008567ffffffffffffffff1667ffffffffffffffff1681526020019081526020016000206001600460008767ffffffffffffffff1667ffffffffffffffff1681526020019081526020016000208054905003815481101515612a1957fe5b90600052602060002090600402016080604051908101604052908160008201548152602001600182018054600181600116156101000203166002900480601f016020809104026020016040519081016040528092919081815260200182805460018160011615610100020316600290048015612ad65780601f10612aab57610100808354040283529160200191612ad6565b820191906000526020600020905b815481529060010190602001808311612ab957829003601f168201915b50505050508152602001600282018054600181600116156101000203166002900480601f016020809104026020016040519081016040528092919081815260200182805460018160011615610100020316600290048015612b785780601f10612b4d57610100808354040283529160200191612b78565b820191906000526020600020905b815481529060010190602001808311612b5b57829003601f168201915b5050505050815260200160038201548152505092505050919050565b600860009054906101000a900473ffffffffffffffffffffffffffffffffffffffff1681565b606080829050606081516040519080825280601f01601f191660200182016040528015612bf65781602001600182028038833980820191505090505b50905060008090505b8251811015612eda577f41000000000000000000000000000000000000000000000000000000000000008382815181101515612c3757fe5b9060200101517f010000000000000000000000000000000000000000000000000000000000000090047f0100000000000000000000000000000000000000000000000000000000000000027effffffffffffffffffffffffffffffffffffffffffffffffffffffffffffff191610158015612d4c57507f5a000000000000000000000000000000000000000000000000000000000000008382815181101515612cdc57fe5b9060200101517f010000000000000000000000000000000000000000000000000000000000000090047f0100000000000000000000000000000000000000000000000000000000000000027effffffffffffffffffffffffffffffffffffffffffffffffffffffffffffff191611155b15612e355760208382815181101515612d6157fe5b9060200101517f010000000000000000000000000000000000000000000000000000000000000090047f0100000000000000000000000000000000000000000000000000000000000000027f01000000000000000000000000000000000000000000000000000000000000009004017f0100000000000000000000000000000000000000000000000000000000000000028282815181101515612e0057fe5b9060200101907effffffffffffffffffffffffffffffffffffffffffffffffffffffffffffff1916908160001a905350612ecd565b8281815181101515612e4357fe5b9060200101517f010000000000000000000000000000000000000000000000000000000000000090047f0100000000000000000000000000000000000000000000000000000000000000028282815181101515612e9c57fe5b9060200101907effffffffffffffffffffffffffffffffffffffffffffffffffffffffffffff1916908160001a9053505b8080600101915050612bff565b508092505050919050565b612eed613be7565b612ef5613be7565b61012060405190810160405280600160089054906101000a900467ffffffffffffffff1667ffffffffffffffff1681526020013373ffffffffffffffffffffffffffffffffffffffff1681526020018a815260200189815260200188815260200187815260200160008152602001600081526020014281525090506000819080600181540180825580915050906001820390600052602060002090600802016000909192909190915060008201518160000160006101000a81548167ffffffffffffffff021916908367ffffffffffffffff16021790555060208201518160000160086101000a81548173ffffffffffffffffffffffffffffffffffffffff021916908373ffffffffffffffffffffffffffffffffffffffff1602179055506040820151816001019080519060200190613030929190613c54565b50606082015181600201908051906020019061304d929190613c54565b50608082015181600301908051906020019061306a929190613c54565b5060a0820151816004015560c0820151816005015560e082015181600601556101008201518160070155505050600160009054906101000a900467ffffffffffffffff1660026000600160089054906101000a900467ffffffffffffffff1667ffffffffffffffff1667ffffffffffffffff16815260200190815260200160002060006101000a81548167ffffffffffffffff021916908367ffffffffffffffff160217905550600760003373ffffffffffffffffffffffffffffffffffffffff1673ffffffffffffffffffffffffffffffffffffffff168152602001908152602001600020600160089054906101000a900467ffffffffffffffff169080600181540180825580915050906001820390600052602060002001600090919267ffffffffffffffff16909190915055506001600081819054906101000a900467ffffffffffffffff168092919060010191906101000a81548167ffffffffffffffff021916908367ffffffffffffffff160217905550506000855114151561323f578460036000600160089054906101000a900467ffffffffffffffff1667ffffffffffffffff1667ffffffffffffffff168152602001908152602001600020908051906020019061323d929190613d1c565b505b60046000600160089054906101000a900467ffffffffffffffff1667ffffffffffffffff1667ffffffffffffffff1681526020019081526020016000206080604051908101604052806001815260200186815260200185815260200142815250908060018154018082558091505090600182039060005260206000209060040201600090919290919091506000820151816000015560208201518160010190805190602001906132f0929190613c54565b50604082015181600201908051906020019061330d929190613c54565b50606082015181600301555050506001600881819054906101000a900467ffffffffffffffff168092919060010191906101000a81548167ffffffffffffffff021916908367ffffffffffffffff1602179055505080915050979650505050505050565b60076020528160005260406000208181548110151561338c57fe5b90600052602060002001600091509150505481565b6000600760003373ffffffffffffffffffffffffffffffffffffffff1673ffffffffffffffffffffffffffffffffffffffff1681526020019081526020016000206001600760003373ffffffffffffffffffffffffffffffffffffffff1673ffffffffffffffffffffffffffffffffffffffff168152602001908152602001600020805490500381548110151561343457fe5b9060005260206000200154905090565b6000600260008567ffffffffffffffff1667ffffffffffffffff16815260200190815260200160002060009054906101000a900467ffffffffffffffff16905060008167ffffffffffffffff1681548110151561349d57fe5b906000526020600020906008020160000160089054906101000a900473ffffffffffffffffffffffffffffffffffffffff1673ffffffffffffffffffffffffffffffffffffffff163373ffffffffffffffffffffffffffffffffffffffff1614151561353e576040517f08c379a0000000000000000000000000000000000000000000000000000000008152600401613535906145c0565b60405180910390fd5b60006001600460008767ffffffffffffffff1667ffffffffffffffff16815260200190815260200160002080549050019050600460008667ffffffffffffffff1667ffffffffffffffff168152602001908152602001600020608060405190810160405280838152602001868152602001858152602001428152509080600181540180825580915050906001820390600052602060002090600402016000909192909190915060008201518160000155602082015181600101908051906020019061360a929190613c54565b506040820151816002019080519060200190613627929190613c54565b50606082015181600301555050505050505050565b613644613be7565b6060600080600260008667ffffffffffffffff1667ffffffffffffffff16815260200190815260200160002060009054906101000a900467ffffffffffffffff1690506000600660003373ffffffffffffffffffffffffffffffffffffffff1673ffffffffffffffffffffffffffffffffffffffff16815260200190815260200160002060008767ffffffffffffffff1667ffffffffffffffff16815260200190815260200160002060009054906101000a900460ff168061377b57503373ffffffffffffffffffffffffffffffffffffffff1660008367ffffffffffffffff1681548110151561373157fe5b906000526020600020906008020160000160089054906101000a900473ffffffffffffffffffffffffffffffffffffffff1673ffffffffffffffffffffffffffffffffffffffff16145b806137af57506000808367ffffffffffffffff1681548110151561379b57fe5b906000526020600020906008020160040154145b905060008267ffffffffffffffff168154811015156137ca57fe5b9060005260206000209060080201600360008467ffffffffffffffff1667ffffffffffffffff168152602001908152602001600020828261012060405190810160405290816000820160009054906101000a900467ffffffffffffffff1667ffffffffffffffff1667ffffffffffffffff1681526020016000820160089054906101000a900473ffffffffffffffffffffffffffffffffffffffff1673ffffffffffffffffffffffffffffffffffffffff1673ffffffffffffffffffffffffffffffffffffffff168152602001600182018054600181600116156101000203166002900480601f01602080910402602001604051908101604052809291908181526020018280546001816001161561010002031660029004801561392f5780601f106139045761010080835404028352916020019161392f565b820191906000526020600020905b81548152906001019060200180831161391257829003601f168201915b50505050508152602001600282018054600181600116156101000203166002900480601f0160208091040260200160405190810160405280929190818152602001828054600181600116156101000203166002900480156139d15780601f106139a6576101008083540402835291602001916139d1565b820191906000526020600020905b8154815290600101906020018083116139b457829003601f168201915b50505050508152602001600382018054600181600116156101000203166002900480601f016020809104026020016040519081016040528092919081815260200182805460018160011615610100020316600290048015613a735780601f10613a4857610100808354040283529160200191613a73565b820191906000526020600020905b815481529060010190602001808311613a5657829003601f168201915b505050505081526020016004820154815260200160058201548152602001600682015481526020016007820154815250509250818054600181600116156101000203166002900480601f016020809104026020016040519081016040528092919081815260200182805460018160011615610100020316600290048015613b3b5780601f10613b1057610100808354040283529160200191613b3b565b820191906000526020600020905b815481529060010190602001808311613b1e57829003601f168201915b5050505050915094509450945050509193909250565b608060405190810160405280600081526020016060815260200160608152602001600081525090565b61012060405190810160405280600067ffffffffffffffff168152602001600073ffffffffffffffffffffffffffffffffffffffff168152602001606081526020016060815260200160608152602001600081526020016000815260200160008152602001600081525090565b61012060405190810160405280600067ffffffffffffffff168152602001600073ffffffffffffffffffffffffffffffffffffffff168152602001606081526020016060815260200160608152602001600081526020016000815260200160008152602001600081525090565b828054600181600116156101000203166002900490600052602060002090601f016020900481019282601f10613c9557805160ff1916838001178555613cc3565b82800160010185558215613cc3579182015b82811115613cc2578251825591602001919060010190613ca7565b5b509050613cd09190613d9c565b5090565b50805460018160011615610100020316600290046000825580601f10613cfa5750613d19565b601f016020900490600052602060002090810190613d189190613d9c565b5b50565b828054600181600116156101000203166002900490600052602060002090601f016020900481019282601f10613d5d57805160ff1916838001178555613d8b565b82800160010185558215613d8b579182015b82811115613d8a578251825591602001919060010190613d6f565b5b509050613d989190613d9c565b5090565b613dbe91905b80821115613dba576000816000905550600101613da2565b5090565b90565b6000613dcd8235614801565b905092915050565b600082601f8301121515613de857600080fd5b8135613dfb613df68261472c565b6146ff565b91508082526020830160208301858383011115613e1757600080fd5b613e22838284614831565b50505092915050565b6000613e378235614813565b905092915050565b6000613e4b823561481d565b905092915050565b60008060408385031215613e6657600080fd5b6000613e7485828601613dc1565b9250506020613e8585828601613e2b565b9150509250929050565b600060208284031215613ea157600080fd5b600082013567ffffffffffffffff811115613ebb57600080fd5b613ec784828501613dd5565b91505092915050565b60008060408385031215613ee357600080fd5b600083013567ffffffffffffffff811115613efd57600080fd5b613f0985828601613dd5565b925050602083013567ffffffffffffffff811115613f2657600080fd5b613f3285828601613dd5565b9150509250929050565b600080600080600080600060e0888a031215613f5757600080fd5b600088013567ffffffffffffffff811115613f7157600080fd5b613f7d8a828b01613dd5565b975050602088013567ffffffffffffffff811115613f9a57600080fd5b613fa68a828b01613dd5565b965050604088013567ffffffffffffffff811115613fc357600080fd5b613fcf8a828b01613dd5565b9550506060613fe08a828b01613e2b565b945050608088013567ffffffffffffffff811115613ffd57600080fd5b6140098a828b01613dd5565b93505060a088013567ffffffffffffffff81111561402657600080fd5b6140328a828b01613dd5565b92505060c088013567ffffffffffffffff81111561404f57600080fd5b61405b8a828b01613dd5565b91505092959891949750929550565b60006020828403121561407c57600080fd5b600061408a84828501613e3f565b91505092915050565b6000806000606084860312156140a857600080fd5b60006140b686828701613e3f565b935050602084013567ffffffffffffffff8111156140d357600080fd5b6140df86828701613dd5565b925050604084013567ffffffffffffffff8111156140fc57600080fd5b61410886828701613dd5565b9150509250925092565b6000806040838503121561412557600080fd5b600061413385828601613e3f565b925050602061414485828601613e3f565b9150509250929050565b614157816147a5565b82525050565b61416681614793565b82525050565b600061417782614765565b8084526020840193508360208202850161419085614758565b60005b848110156141c95783830388526141ab838351614437565b92506141b682614786565b9150602088019750600181019050614193565b508196508694505050505092915050565b6141e3816147b7565b82525050565b60006141f48261477b565b808452614208816020860160208601614840565b61421181614873565b602085010191505092915050565b600061422a82614770565b80845261423e816020860160208601614840565b61424781614873565b602085010191505092915050565b6000601082527f56616c7565206e6f7420726967687421000000000000000000000000000000006020830152604082019050919050565b6000601282527f416363657373206e6f7420616c6c6f77656400000000000000000000000000006020830152604082019050919050565b6000600e82527f4e6f7420417574686f72697a65640000000000000000000000000000000000006020830152604082019050919050565b6000608083016000830151614312600086018261450a565b506020830151848203602086015261432a828261421f565b91505060408301518482036040860152614344828261421f565b9150506060830151614359606086018261450a565b508091505092915050565b60006101208301600083015161437d6000860182614519565b506020830151614390602086018261414e565b50604083015184820360408601526143a8828261421f565b915050606083015184820360608601526143c2828261421f565b915050608083015184820360808601526143dc828261421f565b91505060a08301516143f160a086018261450a565b5060c083015161440460c086018261450a565b5060e083015161441760e086018261450a565b5061010083015161442c61010086018261450a565b508091505092915050565b6000610120830160008301516144506000860182614519565b506020830151614463602086018261414e565b506040830151848203604086015261447b828261421f565b91505060608301518482036060860152614495828261421f565b915050608083015184820360808601526144af828261421f565b91505060a08301516144c460a086018261450a565b5060c08301516144d760c086018261450a565b5060e08301516144ea60e086018261450a565b506101008301516144ff61010086018261450a565b508091505092915050565b614513816147e3565b82525050565b614522816147ed565b82525050565b600060208201905061453d600083018461415d565b92915050565b600060208201905061455860008301846141da565b92915050565b6000602082019050818103600083015261457881846141e9565b905092915050565b6000602082019050818103600083015261459981614255565b9050919050565b600060208201905081810360008301526145b98161428c565b9050919050565b600060208201905081810360008301526145d9816142c3565b9050919050565b600060208201905081810360008301526145fa81846142fa565b905092915050565b6000602082019050818103600083015261461c8184614364565b905092915050565b6000606082019050818103600083015261463e8186614364565b9050818103602083015261465281856141e9565b905061466160408301846141da565b949350505050565b600060208201905061467e600083018461450a565b92915050565b6000604082019050614699600083018561450a565b81810360208301526146ab818461416c565b90509392505050565b60006020820190506146c96000830184614519565b92915050565b60006040820190506146e46000830185614519565b81810360208301526146f6818461416c565b90509392505050565b6000604051905081810181811067ffffffffffffffff8211171561472257600080fd5b8060405250919050565b600067ffffffffffffffff82111561474357600080fd5b601f19601f8301169050602081019050919050565b6000602082019050919050565b600081519050919050565b600081519050919050565b600081519050919050565b6000602082019050919050565b600061479e826147c3565b9050919050565b60006147b0826147c3565b9050919050565b60008115159050919050565b600073ffffffffffffffffffffffffffffffffffffffff82169050919050565b6000819050919050565b600067ffffffffffffffff82169050919050565b600061480c826147c3565b9050919050565b6000819050919050565b600067ffffffffffffffff82169050919050565b82818337600083830152505050565b60005b8381101561485e578082015181840152602081019050614843565b8381111561486d576000848401525b50505050565b6000601f19601f830116905091905056fea265627a7a72305820442fba9959ddc4d385d7a992525003a26ffa011154c0a70b696568ecc70ac49c6c6578706572696d656e74616cf50037",
  "source": "pragma solidity ^0.5;\npragma experimental ABIEncoderV2;\n\ncontract ServiceRegistry {\n  struct Service {\n    uint64 id;\n    address payable owner;\n    string name;\n    string category;\n    string description;\n    uint price;\n    uint ratingTotal;\n    uint ratingCount;\n    uint timestamp;\n  }\n  Service[] services;\n\n  struct ServiceDescription {\n    uint version;\n    string fileName;\n    string fileContent;\n    uint timestamp;\n  }\n\n\n  uint64 serviceCount;\n  uint64 idx;\n\n  mapping(uint64 => uint64) indexes;\n  mapping(uint64 => string) additionalInfos;\n  mapping(uint64 => ServiceDescription[]) private descriptions;\n  mapping(uint64 => mapping(address => uint64)) userRate;\n  mapping(address => mapping(uint64 => bool)) acl;\n  mapping(address => uint[]) public myservices;\n\n  address public owner = msg.sender;\n\n  constructor() public {\n    serviceCount = 0;\n    idx = 0;\n  }\n  function toLower(string memory str) public pure returns(string memory) {\n    bytes memory src = bytes (str);\n    bytes memory des = new bytes(src.length);\n    for(uint i = 0; i < src.length; i++) {\n      if(src[i] >= 'A' && src[i] <= 'Z') {\n        des[i] = byte(uint8(src[i])+32);\n      } else {\n        des[i] = src[i];\n      }\n    }\n    return string(des);\n  }\n  function contains (string memory pattern, string memory text) public pure returns(bool) {\n      bytes memory patternBytes = bytes (pattern);\n      bytes memory textBytes = bytes (text);\n      bool found = false;\n      if(patternBytes.length > textBytes.length) return false;\n      for (uint i = 0; i <= textBytes.length - patternBytes.length; i++) {\n          bool flag = true;\n          for (uint j = 0; j < patternBytes.length; j++) {\n              if (textBytes [i + j] != patternBytes [j]) {\n                  flag = false;\n                  break;\n              }\n          }\n          if (flag) {\n              found = true;\n              break;\n          }\n      }\n      return found;\n  }\n\n\n  function addService(string memory _name, string memory _category, string memory _description, uint _price, string memory additionalInfo, string memory fileName, string memory fileContent)  public returns (Service memory){\n    Service memory created = Service(idx, msg.sender, _name, _category, _description, _price, 0,0,now);\n    services.push(created);\n    indexes[idx] = serviceCount;\n    myservices[msg.sender].push(idx);\n    serviceCount++;\n    if(bytes(additionalInfo).length != 0x0) {\n      additionalInfos[idx] = additionalInfo;\n    }\n    descriptions[idx].push(ServiceDescription(1, fileName, fileContent, now));\n    idx++;\n    return (created);\n  }\n  function getMyLatestServiceId() public view returns (uint) {\n    return myservices[msg.sender][myservices[msg.sender].length-1];\n  }\n  function getAllServices() public view returns(uint64, Service[] memory) {\n    return (serviceCount, services);\n  }\n  function getAllServices(uint64 size, uint64 page) public view returns(uint, Service[] memory) {\n    uint64 start = page*size;\n    Service[] memory ret = new Service[](size);\n    uint upperbound  = (page*size)+size > services.length? services.length-(page*size) : size;\n    for(uint i = 0; i < upperbound; i++) {\n      ret[i] = services[start+i];\n    }\n    return (upperbound, ret);\n  }\n  function findServices(string memory query) public view returns (uint, Service[] memory) {\n    Service[] memory ret = new Service[](50);\n    uint count=0;\n    string memory lower = toLower(query);\n    for(uint j = 0; j < services.length; j++) {\n      Service memory service = services[j];\n      if (contains(lower,toLower(service.name))|| contains(lower, toLower(service.description)) || contains(lower, toLower(service.category))) {\n        ret[count] = service;\n        count++;\n        if(count == 50) break;\n      }\n    }\n    return (count, ret);\n  }\n  function getServiceDetail(uint64 id) public view returns(Service memory generalInfo, string memory additionalInfo, bool allowed) {\n    uint64 index = indexes[id];\n    bool allow = acl[msg.sender][id] || services[index].owner == msg.sender || services[index].price == 0;\n    return (services[index], additionalInfos[index], allow);\n  }\n  function getServiceDescription(uint64 id) public view returns(ServiceDescription memory serviceDescription) {\n    uint64 index = indexes[id];\n    bool allowed = acl[msg.sender][id] || services[index].owner == msg.sender || services[index].price == 0;\n    require(allowed, \"Access not allowed\");\n    return (descriptions[id][descriptions[id].length-1]);\n  }\n  function getServiceDescriptionSpec(uint64 id, uint64 version) public view returns(ServiceDescription memory serviceDesciption) {\n    uint64 index = indexes[id];\n    bool allowed = acl[msg.sender][id] || services[index].owner == msg.sender || services[index].price == 0;\n    require(allowed, \"Access not allowed\");\n    require(version <= descriptions[id].length && version > 0);\n    return (descriptions[id][version-1]);\n\n  }\n\n  function deleteService(uint64 id) public {\n    uint64 index = indexes[id];\n    Service memory deleted = services[index];\n    require(msg.sender == deleted.owner);\n    Service memory latest = services[serviceCount-1];\n    services[index] = latest;\n    services.pop();\n    indexes[latest.id] = index;\n    serviceCount--;\n  }\n\n  function payForService(uint64 id) payable public {\n    uint64 index = indexes[id];\n    Service memory service = services[index];\n    require(!(acl[msg.sender][id] || services[index].owner == msg.sender || services[index].price == 0));\n    require(msg.value >= service.price, \"Value not right!\");\n    service.owner.transfer(service.price);\n    acl[msg.sender][id] = true;\n  }\n\n  function updateDescription(uint64 id, string memory fileName, string memory fileDescription) public {\n    uint64 index = indexes[id];\n    require (msg.sender == services[index].owner, \"Not Authorized\");\n    uint version = descriptions[id].length+1;\n    descriptions[id].push(ServiceDescription(version, fileName, fileDescription, now));\n  }\n\n  function rateService(uint64 id, uint64 rate) public {\n    uint64 index = indexes[id];\n    bool allowed = (acl[msg.sender][id] || services[index].price == 0) && services[index].owner != msg.sender;\n    require(rate >= 1 && rate <= 10);\n    require(allowed, \"Access not allowed\");\n    if(userRate[id][msg.sender] == 0) {\n      services[index].ratingTotal += rate;\n      services[index].ratingCount++;\n      userRate[id][msg.sender] = rate;\n    } else {\n      services[index].ratingTotal -= userRate[id][msg.sender];\n      services[index].ratingTotal += rate;\n      userRate[id][msg.sender] = rate;\n    }\n  }\n  function getUserRate(uint64 id) public view returns (uint64) {\n    return userRate[id][msg.sender];\n  }\n}\n",
  "sourcePath": "/Users/kanisiuskeneth/Documents/TA/dicey/backend/contracts/ServiceRegistry.sol",
  "compiler": {
    "name": "solc",
    "version": "0.5.0+commit.1d4f565a.Emscripten.clang"
  },
  "schemaVersion": "3.0.6",
  "updatedAt": "2019-07-22T16:09:11.266Z",
  "devdoc": {
    "methods": {}
  },
  "userdoc": {
    "methods": {}
  }
}