{
  "contractName": "ServiceRegistry",
  "abi": [
    {
      "constant": true,
      "inputs": [
        {
          "name": "",
          "type": "address"
        },
        {
          "name": "",
          "type": "uint256"
        }
      ],
      "name": "myservices",
      "outputs": [
        {
          "name": "",
          "type": "uint256"
        }
      ],
      "payable": false,
      "stateMutability": "view",
      "type": "function",
      "signature": "0x9748944a"
    },
    {
      "inputs": [],
      "payable": false,
      "stateMutability": "nonpayable",
      "type": "constructor",
      "signature": "constructor"
    },
    {
      "constant": false,
      "inputs": [
        {
          "name": "_name",
          "type": "string"
        },
        {
          "name": "_category",
          "type": "string"
        },
        {
          "name": "_description",
          "type": "string"
        },
        {
          "name": "_price",
          "type": "uint256"
        },
        {
          "name": "additionalInfo",
          "type": "string"
        },
        {
          "name": "fileName",
          "type": "string"
        },
        {
          "name": "fileContent",
          "type": "string"
        }
      ],
      "name": "addService",
      "outputs": [
        {
          "components": [
            {
              "name": "id",
              "type": "uint64"
            },
            {
              "name": "owner",
              "type": "address"
            },
            {
              "name": "name",
              "type": "string"
            },
            {
              "name": "category",
              "type": "string"
            },
            {
              "name": "description",
              "type": "string"
            },
            {
              "name": "price",
              "type": "uint256"
            },
            {
              "name": "ratingTotal",
              "type": "uint256"
            },
            {
              "name": "ratingCount",
              "type": "uint256"
            },
            {
              "name": "timestamp",
              "type": "uint256"
            }
          ],
          "name": "",
          "type": "tuple"
        }
      ],
      "payable": false,
      "stateMutability": "nonpayable",
      "type": "function",
      "signature": "0x94b59e32"
    },
    {
      "constant": false,
      "inputs": [],
      "name": "getMyLatestServiceId",
      "outputs": [
        {
          "name": "",
          "type": "uint256"
        }
      ],
      "payable": false,
      "stateMutability": "nonpayable",
      "type": "function",
      "signature": "0x9bb2ca71"
    },
    {
      "constant": true,
      "inputs": [],
      "name": "getAllServices",
      "outputs": [
        {
          "name": "",
          "type": "uint64"
        },
        {
          "components": [
            {
              "name": "id",
              "type": "uint64"
            },
            {
              "name": "owner",
              "type": "address"
            },
            {
              "name": "name",
              "type": "string"
            },
            {
              "name": "category",
              "type": "string"
            },
            {
              "name": "description",
              "type": "string"
            },
            {
              "name": "price",
              "type": "uint256"
            },
            {
              "name": "ratingTotal",
              "type": "uint256"
            },
            {
              "name": "ratingCount",
              "type": "uint256"
            },
            {
              "name": "timestamp",
              "type": "uint256"
            }
          ],
          "name": "",
          "type": "tuple[]"
        }
      ],
      "payable": false,
      "stateMutability": "view",
      "type": "function",
      "signature": "0x21fe0f30"
    },
    {
      "constant": true,
      "inputs": [
        {
          "name": "id",
          "type": "uint64"
        }
      ],
      "name": "getServiceDetail",
      "outputs": [
        {
          "components": [
            {
              "name": "id",
              "type": "uint64"
            },
            {
              "name": "owner",
              "type": "address"
            },
            {
              "name": "name",
              "type": "string"
            },
            {
              "name": "category",
              "type": "string"
            },
            {
              "name": "description",
              "type": "string"
            },
            {
              "name": "price",
              "type": "uint256"
            },
            {
              "name": "ratingTotal",
              "type": "uint256"
            },
            {
              "name": "ratingCount",
              "type": "uint256"
            },
            {
              "name": "timestamp",
              "type": "uint256"
            }
          ],
          "name": "generalInfo",
          "type": "tuple"
        },
        {
          "name": "additionalInfo",
          "type": "string"
        },
        {
          "name": "allowed",
          "type": "bool"
        }
      ],
      "payable": false,
      "stateMutability": "view",
      "type": "function",
      "signature": "0xf76c7fde"
    },
    {
      "constant": true,
      "inputs": [
        {
          "name": "id",
          "type": "uint64"
        }
      ],
      "name": "getServiceDescription",
      "outputs": [
        {
          "components": [
            {
              "name": "version",
              "type": "uint256"
            },
            {
              "name": "fileName",
              "type": "string"
            },
            {
              "name": "fileContent",
              "type": "string"
            },
            {
              "name": "timestamp",
              "type": "uint256"
            }
          ],
          "name": "serviceDescription",
          "type": "tuple"
        }
      ],
      "payable": false,
      "stateMutability": "view",
      "type": "function",
      "signature": "0x8d9f654c"
    },
    {
      "constant": true,
      "inputs": [
        {
          "name": "id",
          "type": "uint64"
        },
        {
          "name": "version",
          "type": "uint256"
        }
      ],
      "name": "getServiceDescription",
      "outputs": [
        {
          "components": [
            {
              "name": "version",
              "type": "uint256"
            },
            {
              "name": "fileName",
              "type": "string"
            },
            {
              "name": "fileContent",
              "type": "string"
            },
            {
              "name": "timestamp",
              "type": "uint256"
            }
          ],
          "name": "serviceDesciption",
          "type": "tuple"
        }
      ],
      "payable": false,
      "stateMutability": "view",
      "type": "function",
      "signature": "0x7c80ce81"
    },
    {
      "constant": false,
      "inputs": [
        {
          "name": "id",
          "type": "uint64"
        }
      ],
      "name": "deleteService",
      "outputs": [],
      "payable": false,
      "stateMutability": "nonpayable",
      "type": "function",
      "signature": "0x8a32a325"
    },
    {
      "constant": false,
      "inputs": [
        {
          "name": "id",
          "type": "uint64"
        }
      ],
      "name": "payForService",
      "outputs": [],
      "payable": true,
      "stateMutability": "payable",
      "type": "function",
      "signature": "0x445ea813"
    },
    {
      "constant": false,
      "inputs": [
        {
          "name": "id",
          "type": "uint64"
        },
        {
          "name": "fileName",
          "type": "string"
        },
        {
          "name": "fileDescription",
          "type": "string"
        }
      ],
      "name": "updateDescription",
      "outputs": [],
      "payable": false,
      "stateMutability": "nonpayable",
      "type": "function",
      "signature": "0xabf818f6"
    },
    {
      "constant": false,
      "inputs": [
        {
          "name": "id",
          "type": "uint64"
        },
        {
          "name": "rate",
          "type": "uint64"
        }
      ],
      "name": "rateService",
      "outputs": [],
      "payable": false,
      "stateMutability": "nonpayable",
      "type": "function",
      "signature": "0x89f0a0c8"
    },
    {
      "constant": false,
      "inputs": [
        {
          "name": "id",
          "type": "uint64"
        }
      ],
      "name": "getUserRate",
      "outputs": [
        {
          "name": "",
          "type": "uint64"
        }
      ],
      "payable": false,
      "stateMutability": "nonpayable",
      "type": "function",
      "signature": "0x63fca110"
    }
  ],
  "bytecode": "0x608060405233600860006101000a81548173ffffffffffffffffffffffffffffffffffffffff021916908373ffffffffffffffffffffffffffffffffffffffff16021790555034801561005157600080fd5b506000600160006101000a81548167ffffffffffffffff021916908367ffffffffffffffff1602179055506000600160086101000a81548167ffffffffffffffff021916908367ffffffffffffffff1602179055506137f8806100b56000396000f3fe6080604052600436106100ba576000357c0100000000000000000000000000000000000000000000000000000000900463ffffffff16806321fe0f30146100bf578063445ea813146100eb57806363fca110146101075780637c80ce811461014457806389f0a0c8146101815780638a32a325146101aa5780638d9f654c146101d357806394b59e32146102105780639748944a1461024d5780639bb2ca711461028a578063abf818f6146102b5578063f76c7fde146102de575b600080fd5b3480156100cb57600080fd5b506100d461031d565b6040516100e292919061361b565b60405180910390f35b61010560048036036101009190810190613011565b610633565b005b34801561011357600080fd5b5061012e60048036036101299190810190613011565b610a61565b60405161013b9190613600565b60405180910390f35b34801561015057600080fd5b5061016b600480360361016691908101906130b9565b610ae3565b604051610178919061355c565b60405180910390f35b34801561018d57600080fd5b506101a860048036036101a391908101906130f5565b610e83565b005b3480156101b657600080fd5b506101d160048036036101cc9190810190613011565b61135f565b005b3480156101df57600080fd5b506101fa60048036036101f59190810190613011565b611c16565b604051610207919061355c565b60405180910390f35b34801561021c57600080fd5b5061023760048036036102329190810190612ee3565b611fa6565b604051610244919061357e565b60405180910390f35b34801561025957600080fd5b50610274600480360361026f9190810190612ea7565b612432565b60405161028191906135e5565b60405180910390f35b34801561029657600080fd5b5061029f612462565b6040516102ac91906135e5565b60405180910390f35b3480156102c157600080fd5b506102dc60048036036102d7919081019061303a565b612505565b005b3480156102ea57600080fd5b5061030560048036036103009190810190613011565b6126fd565b604051610314939291906135a0565b60405180910390f35b60006060600160009054906101000a900467ffffffffffffffff16600080805480602002602001604051908101604052809291908181526020016000905b82821015610625578382906000526020600020906008020161012060405190810160405290816000820160009054906101000a900467ffffffffffffffff1667ffffffffffffffff1667ffffffffffffffff1681526020016000820160089054906101000a900473ffffffffffffffffffffffffffffffffffffffff1673ffffffffffffffffffffffffffffffffffffffff1673ffffffffffffffffffffffffffffffffffffffff168152602001600182018054600181600116156101000203166002900480601f0160208091040260200160405190810160405280929190818152602001828054600181600116156101000203166002900480156104a15780601f10610476576101008083540402835291602001916104a1565b820191906000526020600020905b81548152906001019060200180831161048457829003601f168201915b50505050508152602001600282018054600181600116156101000203166002900480601f0160208091040260200160405190810160405280929190818152602001828054600181600116156101000203166002900480156105435780601f1061051857610100808354040283529160200191610543565b820191906000526020600020905b81548152906001019060200180831161052657829003601f168201915b50505050508152602001600382018054600181600116156101000203166002900480601f0160208091040260200160405190810160405280929190818152602001828054600181600116156101000203166002900480156105e55780601f106105ba576101008083540402835291602001916105e5565b820191906000526020600020905b8154815290600101906020018083116105c857829003601f168201915b505050505081526020016004820154815260200160058201548152602001600682015481526020016007820154815250508152602001906001019061035b565b505050509050915091509091565b6000600260008367ffffffffffffffff1667ffffffffffffffff16815260200190815260200160002060009054906101000a900467ffffffffffffffff16905061067b612c12565b60008267ffffffffffffffff1681548110151561069457fe5b906000526020600020906008020161012060405190810160405290816000820160009054906101000a900467ffffffffffffffff1667ffffffffffffffff1667ffffffffffffffff1681526020016000820160089054906101000a900473ffffffffffffffffffffffffffffffffffffffff1673ffffffffffffffffffffffffffffffffffffffff1673ffffffffffffffffffffffffffffffffffffffff168152602001600182018054600181600116156101000203166002900480601f0160208091040260200160405190810160405280929190818152602001828054600181600116156101000203166002900480156107d05780601f106107a5576101008083540402835291602001916107d0565b820191906000526020600020905b8154815290600101906020018083116107b357829003601f168201915b50505050508152602001600282018054600181600116156101000203166002900480601f0160208091040260200160405190810160405280929190818152602001828054600181600116156101000203166002900480156108725780601f1061084757610100808354040283529160200191610872565b820191906000526020600020905b81548152906001019060200180831161085557829003601f168201915b50505050508152602001600382018054600181600116156101000203166002900480601f0160208091040260200160405190810160405280929190818152602001828054600181600116156101000203166002900480156109145780601f106108e957610100808354040283529160200191610914565b820191906000526020600020905b8154815290600101906020018083116108f757829003601f168201915b5050505050815260200160048201548152602001600582015481526020016006820154815260200160078201548152505090508060a001513410151515610990576040517f08c379a0000000000000000000000000000000000000000000000000000000008152600401610987906134fc565b60405180910390fd5b806020015173ffffffffffffffffffffffffffffffffffffffff166108fc8260a001519081150290604051600060405180830381858888f193505050501580156109de573d6000803e3d6000fd5b506001600660003373ffffffffffffffffffffffffffffffffffffffff1673ffffffffffffffffffffffffffffffffffffffff16815260200190815260200160002060008567ffffffffffffffff1667ffffffffffffffff16815260200190815260200160002060006101000a81548160ff021916908315150217905550505050565b6000600560008367ffffffffffffffff1667ffffffffffffffff16815260200190815260200160002060003373ffffffffffffffffffffffffffffffffffffffff1673ffffffffffffffffffffffffffffffffffffffff16815260200190815260200160002060009054906101000a900467ffffffffffffffff169050919050565b610aeb612c7f565b6000600260008567ffffffffffffffff1667ffffffffffffffff16815260200190815260200160002060009054906101000a900467ffffffffffffffff1690506000600660003373ffffffffffffffffffffffffffffffffffffffff1673ffffffffffffffffffffffffffffffffffffffff16815260200190815260200160002060008667ffffffffffffffff1667ffffffffffffffff16815260200190815260200160002060009054906101000a900460ff1680610c1f57503373ffffffffffffffffffffffffffffffffffffffff1660008367ffffffffffffffff16815481101515610bd557fe5b906000526020600020906008020160000160089054906101000a900473ffffffffffffffffffffffffffffffffffffffff1673ffffffffffffffffffffffffffffffffffffffff16145b80610c5357506000808367ffffffffffffffff16815481101515610c3f57fe5b906000526020600020906008020160040154145b9050801515610c97576040517f08c379a0000000000000000000000000000000000000000000000000000000008152600401610c8e9061351c565b60405180910390fd5b600460008667ffffffffffffffff1667ffffffffffffffff168152602001908152602001600020805490508411151515610cd057600080fd5b600460008667ffffffffffffffff1667ffffffffffffffff16815260200190815260200160002060018503815481101515610d0757fe5b90600052602060002090600402016080604051908101604052908160008201548152602001600182018054600181600116156101000203166002900480601f016020809104026020016040519081016040528092919081815260200182805460018160011615610100020316600290048015610dc45780601f10610d9957610100808354040283529160200191610dc4565b820191906000526020600020905b815481529060010190602001808311610da757829003601f168201915b50505050508152602001600282018054600181600116156101000203166002900480601f016020809104026020016040519081016040528092919081815260200182805460018160011615610100020316600290048015610e665780601f10610e3b57610100808354040283529160200191610e66565b820191906000526020600020905b815481529060010190602001808311610e4957829003601f168201915b505050505081526020016003820154815250509250505092915050565b6000600260008467ffffffffffffffff1667ffffffffffffffff16815260200190815260200160002060009054906101000a900467ffffffffffffffff1690506000600660003373ffffffffffffffffffffffffffffffffffffffff1673ffffffffffffffffffffffffffffffffffffffff16815260200190815260200160002060008567ffffffffffffffff1667ffffffffffffffff16815260200190815260200160002060009054906101000a900460ff1680610f6b57506000808367ffffffffffffffff16815481101515610f5757fe5b906000526020600020906008020160040154145b8015610fed57503373ffffffffffffffffffffffffffffffffffffffff1660008367ffffffffffffffff16815481101515610fa257fe5b906000526020600020906008020160000160089054906101000a900473ffffffffffffffffffffffffffffffffffffffff1673ffffffffffffffffffffffffffffffffffffffff1614155b9050801515611031576040517f08c379a00000000000000000000000000000000000000000000000000000000081526004016110289061351c565b60405180910390fd5b60006064840290506000600560008767ffffffffffffffff1667ffffffffffffffff16815260200190815260200160002060003373ffffffffffffffffffffffffffffffffffffffff1673ffffffffffffffffffffffffffffffffffffffff16815260200190815260200160002060009054906101000a900467ffffffffffffffff1667ffffffffffffffff1614156111d0578067ffffffffffffffff1660008467ffffffffffffffff168154811015156110e857fe5b90600052602060002090600802016005016000828254019250508190555060008367ffffffffffffffff1681548110151561111f57fe5b90600052602060002090600802016006016000815480929190600101919050555080600560008767ffffffffffffffff1667ffffffffffffffff16815260200190815260200160002060003373ffffffffffffffffffffffffffffffffffffffff1673ffffffffffffffffffffffffffffffffffffffff16815260200190815260200160002060006101000a81548167ffffffffffffffff021916908367ffffffffffffffff160217905550611358565b600560008667ffffffffffffffff1667ffffffffffffffff16815260200190815260200160002060003373ffffffffffffffffffffffffffffffffffffffff1673ffffffffffffffffffffffffffffffffffffffff16815260200190815260200160002060009054906101000a900467ffffffffffffffff1667ffffffffffffffff1660008467ffffffffffffffff1681548110151561126c57fe5b9060005260206000209060080201600501600082825403925050819055508067ffffffffffffffff1660008467ffffffffffffffff168154811015156112ae57fe5b90600052602060002090600802016005016000828254019250508190555080600560008767ffffffffffffffff1667ffffffffffffffff16815260200190815260200160002060003373ffffffffffffffffffffffffffffffffffffffff1673ffffffffffffffffffffffffffffffffffffffff16815260200190815260200160002060006101000a81548167ffffffffffffffff021916908367ffffffffffffffff1602179055505b5050505050565b6000600260008367ffffffffffffffff1667ffffffffffffffff16815260200190815260200160002060009054906101000a900467ffffffffffffffff1690506113a7612c12565b60008267ffffffffffffffff168154811015156113c057fe5b906000526020600020906008020161012060405190810160405290816000820160009054906101000a900467ffffffffffffffff1667ffffffffffffffff1667ffffffffffffffff1681526020016000820160089054906101000a900473ffffffffffffffffffffffffffffffffffffffff1673ffffffffffffffffffffffffffffffffffffffff1673ffffffffffffffffffffffffffffffffffffffff168152602001600182018054600181600116156101000203166002900480601f0160208091040260200160405190810160405280929190818152602001828054600181600116156101000203166002900480156114fc5780601f106114d1576101008083540402835291602001916114fc565b820191906000526020600020905b8154815290600101906020018083116114df57829003601f168201915b50505050508152602001600282018054600181600116156101000203166002900480601f01602080910402602001604051908101604052809291908181526020018280546001816001161561010002031660029004801561159e5780601f106115735761010080835404028352916020019161159e565b820191906000526020600020905b81548152906001019060200180831161158157829003601f168201915b50505050508152602001600382018054600181600116156101000203166002900480601f0160208091040260200160405190810160405280929190818152602001828054600181600116156101000203166002900480156116405780601f1061161557610100808354040283529160200191611640565b820191906000526020600020905b81548152906001019060200180831161162357829003601f168201915b505050505081526020016004820154815260200160058201548152602001600682015481526020016007820154815250509050806020015173ffffffffffffffffffffffffffffffffffffffff163373ffffffffffffffffffffffffffffffffffffffff161415156116b157600080fd5b6116b9612c12565b600060018060009054906101000a900467ffffffffffffffff160367ffffffffffffffff168154811015156116ea57fe5b906000526020600020906008020161012060405190810160405290816000820160009054906101000a900467ffffffffffffffff1667ffffffffffffffff1667ffffffffffffffff1681526020016000820160089054906101000a900473ffffffffffffffffffffffffffffffffffffffff1673ffffffffffffffffffffffffffffffffffffffff1673ffffffffffffffffffffffffffffffffffffffff168152602001600182018054600181600116156101000203166002900480601f0160208091040260200160405190810160405280929190818152602001828054600181600116156101000203166002900480156118265780601f106117fb57610100808354040283529160200191611826565b820191906000526020600020905b81548152906001019060200180831161180957829003601f168201915b50505050508152602001600282018054600181600116156101000203166002900480601f0160208091040260200160405190810160405280929190818152602001828054600181600116156101000203166002900480156118c85780601f1061189d576101008083540402835291602001916118c8565b820191906000526020600020905b8154815290600101906020018083116118ab57829003601f168201915b50505050508152602001600382018054600181600116156101000203166002900480601f01602080910402602001604051908101604052809291908181526020018280546001816001161561010002031660029004801561196a5780601f1061193f5761010080835404028352916020019161196a565b820191906000526020600020905b81548152906001019060200180831161194d57829003601f168201915b5050505050815260200160048201548152602001600582015481526020016006820154815260200160078201548152505090508060008467ffffffffffffffff168154811015156119b757fe5b906000526020600020906008020160008201518160000160006101000a81548167ffffffffffffffff021916908367ffffffffffffffff16021790555060208201518160000160086101000a81548173ffffffffffffffffffffffffffffffffffffffff021916908373ffffffffffffffffffffffffffffffffffffffff1602179055506040820151816001019080519060200190611a57929190612ca8565b506060820151816002019080519060200190611a74929190612ca8565b506080820151816003019080519060200190611a91929190612ca8565b5060a0820151816004015560c0820151816005015560e08201518160060155610100820151816007015590505060008054801515611acb57fe5b6001900381819060005260206000209060080201600080820160006101000a81549067ffffffffffffffff02191690556000820160086101000a81549073ffffffffffffffffffffffffffffffffffffffff0219169055600182016000611b329190612d28565b600282016000611b429190612d28565b600382016000611b529190612d28565b6004820160009055600582016000905560068201600090556007820160009055505090558260026000836000015167ffffffffffffffff1667ffffffffffffffff16815260200190815260200160002060006101000a81548167ffffffffffffffff021916908367ffffffffffffffff1602179055506001600081819054906101000a900467ffffffffffffffff16809291906001900391906101000a81548167ffffffffffffffff021916908367ffffffffffffffff1602179055505050505050565b611c1e612c7f565b6000600260008467ffffffffffffffff1667ffffffffffffffff16815260200190815260200160002060009054906101000a900467ffffffffffffffff1690506000600660003373ffffffffffffffffffffffffffffffffffffffff1673ffffffffffffffffffffffffffffffffffffffff16815260200190815260200160002060008567ffffffffffffffff1667ffffffffffffffff16815260200190815260200160002060009054906101000a900460ff1680611d5257503373ffffffffffffffffffffffffffffffffffffffff1660008367ffffffffffffffff16815481101515611d0857fe5b906000526020600020906008020160000160089054906101000a900473ffffffffffffffffffffffffffffffffffffffff1673ffffffffffffffffffffffffffffffffffffffff16145b80611d8657506000808367ffffffffffffffff16815481101515611d7257fe5b906000526020600020906008020160040154145b9050801515611dca576040517f08c379a0000000000000000000000000000000000000000000000000000000008152600401611dc19061351c565b60405180910390fd5b600460008567ffffffffffffffff1667ffffffffffffffff1681526020019081526020016000206001600460008767ffffffffffffffff1667ffffffffffffffff1681526020019081526020016000208054905003815481101515611e2b57fe5b90600052602060002090600402016080604051908101604052908160008201548152602001600182018054600181600116156101000203166002900480601f016020809104026020016040519081016040528092919081815260200182805460018160011615610100020316600290048015611ee85780601f10611ebd57610100808354040283529160200191611ee8565b820191906000526020600020905b815481529060010190602001808311611ecb57829003601f168201915b50505050508152602001600282018054600181600116156101000203166002900480601f016020809104026020016040519081016040528092919081815260200182805460018160011615610100020316600290048015611f8a5780601f10611f5f57610100808354040283529160200191611f8a565b820191906000526020600020905b815481529060010190602001808311611f6d57829003601f168201915b5050505050815260200160038201548152505092505050919050565b611fae612c12565b611fb6612c12565b61012060405190810160405280600160089054906101000a900467ffffffffffffffff1667ffffffffffffffff1681526020013373ffffffffffffffffffffffffffffffffffffffff1681526020018a815260200189815260200188815260200187815260200160008152602001600081526020014281525090506000819080600181540180825580915050906001820390600052602060002090600802016000909192909190915060008201518160000160006101000a81548167ffffffffffffffff021916908367ffffffffffffffff16021790555060208201518160000160086101000a81548173ffffffffffffffffffffffffffffffffffffffff021916908373ffffffffffffffffffffffffffffffffffffffff16021790555060408201518160010190805190602001906120f1929190612ca8565b50606082015181600201908051906020019061210e929190612ca8565b50608082015181600301908051906020019061212b929190612ca8565b5060a0820151816004015560c0820151816005015560e082015181600601556101008201518160070155505050600160009054906101000a900467ffffffffffffffff1660026000600160089054906101000a900467ffffffffffffffff1667ffffffffffffffff1667ffffffffffffffff16815260200190815260200160002060006101000a81548167ffffffffffffffff021916908367ffffffffffffffff160217905550600760003373ffffffffffffffffffffffffffffffffffffffff1673ffffffffffffffffffffffffffffffffffffffff168152602001908152602001600020600160089054906101000a900467ffffffffffffffff169080600181540180825580915050906001820390600052602060002001600090919267ffffffffffffffff16909190915055506001600081819054906101000a900467ffffffffffffffff168092919060010191906101000a81548167ffffffffffffffff021916908367ffffffffffffffff1602179055505060008551141515612300578460036000600160089054906101000a900467ffffffffffffffff1667ffffffffffffffff1667ffffffffffffffff16815260200190815260200160002090805190602001906122fe929190612d70565b505b60046000600160089054906101000a900467ffffffffffffffff1667ffffffffffffffff1667ffffffffffffffff1681526020019081526020016000206080604051908101604052806001815260200186815260200185815260200142815250908060018154018082558091505090600182039060005260206000209060040201600090919290919091506000820151816000015560208201518160010190805190602001906123b1929190612ca8565b5060408201518160020190805190602001906123ce929190612ca8565b50606082015181600301555050506001600881819054906101000a900467ffffffffffffffff168092919060010191906101000a81548167ffffffffffffffff021916908367ffffffffffffffff1602179055505080915050979650505050505050565b60076020528160005260406000208181548110151561244d57fe5b90600052602060002001600091509150505481565b6000600760003373ffffffffffffffffffffffffffffffffffffffff1673ffffffffffffffffffffffffffffffffffffffff1681526020019081526020016000206001600760003373ffffffffffffffffffffffffffffffffffffffff1673ffffffffffffffffffffffffffffffffffffffff16815260200190815260200160002080549050038154811015156124f557fe5b9060005260206000200154905090565b6000600260008567ffffffffffffffff1667ffffffffffffffff16815260200190815260200160002060009054906101000a900467ffffffffffffffff16905060008167ffffffffffffffff1681548110151561255e57fe5b906000526020600020906008020160000160089054906101000a900473ffffffffffffffffffffffffffffffffffffffff1673ffffffffffffffffffffffffffffffffffffffff163373ffffffffffffffffffffffffffffffffffffffff161415156125ff576040517f08c379a00000000000000000000000000000000000000000000000000000000081526004016125f69061353c565b60405180910390fd5b60006001600460008767ffffffffffffffff1667ffffffffffffffff16815260200190815260200160002080549050019050600460008667ffffffffffffffff1667ffffffffffffffff16815260200190815260200160002060806040519081016040528083815260200186815260200185815260200142815250908060018154018082558091505090600182039060005260206000209060040201600090919290919091506000820151816000015560208201518160010190805190602001906126cb929190612ca8565b5060408201518160020190805190602001906126e8929190612ca8565b50606082015181600301555050505050505050565b612705612c12565b6060600080600260008667ffffffffffffffff1667ffffffffffffffff16815260200190815260200160002060009054906101000a900467ffffffffffffffff1690506000600660003373ffffffffffffffffffffffffffffffffffffffff1673ffffffffffffffffffffffffffffffffffffffff16815260200190815260200160002060008767ffffffffffffffff1667ffffffffffffffff16815260200190815260200160002060009054906101000a900460ff168061283c57503373ffffffffffffffffffffffffffffffffffffffff1660008367ffffffffffffffff168154811015156127f257fe5b906000526020600020906008020160000160089054906101000a900473ffffffffffffffffffffffffffffffffffffffff1673ffffffffffffffffffffffffffffffffffffffff16145b8061287057506000808367ffffffffffffffff1681548110151561285c57fe5b906000526020600020906008020160040154145b905060008267ffffffffffffffff1681548110151561288b57fe5b9060005260206000209060080201600360008467ffffffffffffffff1667ffffffffffffffff168152602001908152602001600020828261012060405190810160405290816000820160009054906101000a900467ffffffffffffffff1667ffffffffffffffff1667ffffffffffffffff1681526020016000820160089054906101000a900473ffffffffffffffffffffffffffffffffffffffff1673ffffffffffffffffffffffffffffffffffffffff1673ffffffffffffffffffffffffffffffffffffffff168152602001600182018054600181600116156101000203166002900480601f0160208091040260200160405190810160405280929190818152602001828054600181600116156101000203166002900480156129f05780601f106129c5576101008083540402835291602001916129f0565b820191906000526020600020905b8154815290600101906020018083116129d357829003601f168201915b50505050508152602001600282018054600181600116156101000203166002900480601f016020809104026020016040519081016040528092919081815260200182805460018160011615610100020316600290048015612a925780601f10612a6757610100808354040283529160200191612a92565b820191906000526020600020905b815481529060010190602001808311612a7557829003601f168201915b50505050508152602001600382018054600181600116156101000203166002900480601f016020809104026020016040519081016040528092919081815260200182805460018160011615610100020316600290048015612b345780601f10612b0957610100808354040283529160200191612b34565b820191906000526020600020905b815481529060010190602001808311612b1757829003601f168201915b505050505081526020016004820154815260200160058201548152602001600682015481526020016007820154815250509250818054600181600116156101000203166002900480601f016020809104026020016040519081016040528092919081815260200182805460018160011615610100020316600290048015612bfc5780601f10612bd157610100808354040283529160200191612bfc565b820191906000526020600020905b815481529060010190602001808311612bdf57829003601f168201915b5050505050915094509450945050509193909250565b61012060405190810160405280600067ffffffffffffffff168152602001600073ffffffffffffffffffffffffffffffffffffffff168152602001606081526020016060815260200160608152602001600081526020016000815260200160008152602001600081525090565b608060405190810160405280600081526020016060815260200160608152602001600081525090565b828054600181600116156101000203166002900490600052602060002090601f016020900481019282601f10612ce957805160ff1916838001178555612d17565b82800160010185558215612d17579182015b82811115612d16578251825591602001919060010190612cfb565b5b509050612d249190612df0565b5090565b50805460018160011615610100020316600290046000825580601f10612d4e5750612d6d565b601f016020900490600052602060002090810190612d6c9190612df0565b5b50565b828054600181600116156101000203166002900490600052602060002090601f016020900481019282601f10612db157805160ff1916838001178555612ddf565b82800160010185558215612ddf579182015b82811115612dde578251825591602001919060010190612dc3565b5b509050612dec9190612df0565b5090565b612e1291905b80821115612e0e576000816000905550600101612df6565b5090565b90565b6000612e21823561373b565b905092915050565b600082601f8301121515612e3c57600080fd5b8135612e4f612e4a82613678565b61364b565b91508082526020830160208301858383011115612e6b57600080fd5b612e7683828461376b565b50505092915050565b6000612e8b823561374d565b905092915050565b6000612e9f8235613757565b905092915050565b60008060408385031215612eba57600080fd5b6000612ec885828601612e15565b9250506020612ed985828601612e7f565b9150509250929050565b600080600080600080600060e0888a031215612efe57600080fd5b600088013567ffffffffffffffff811115612f1857600080fd5b612f248a828b01612e29565b975050602088013567ffffffffffffffff811115612f4157600080fd5b612f4d8a828b01612e29565b965050604088013567ffffffffffffffff811115612f6a57600080fd5b612f768a828b01612e29565b9550506060612f878a828b01612e7f565b945050608088013567ffffffffffffffff811115612fa457600080fd5b612fb08a828b01612e29565b93505060a088013567ffffffffffffffff811115612fcd57600080fd5b612fd98a828b01612e29565b92505060c088013567ffffffffffffffff811115612ff657600080fd5b6130028a828b01612e29565b91505092959891949750929550565b60006020828403121561302357600080fd5b600061303184828501612e93565b91505092915050565b60008060006060848603121561304f57600080fd5b600061305d86828701612e93565b935050602084013567ffffffffffffffff81111561307a57600080fd5b61308686828701612e29565b925050604084013567ffffffffffffffff8111156130a357600080fd5b6130af86828701612e29565b9150509250925092565b600080604083850312156130cc57600080fd5b60006130da85828601612e93565b92505060206130eb85828601612e7f565b9150509250929050565b6000806040838503121561310857600080fd5b600061311685828601612e93565b925050602061312785828601612e93565b9150509250929050565b61313a816136df565b82525050565b600061314b826136b1565b80845260208401935083602082028501613164856136a4565b60005b8481101561319d57838303885261317f83835161340b565b925061318a826136d2565b9150602088019750600181019050613167565b508196508694505050505092915050565b6131b7816136f1565b82525050565b60006131c8826136c7565b8084526131dc81602086016020860161377a565b6131e5816137ad565b602085010191505092915050565b60006131fe826136bc565b80845261321281602086016020860161377a565b61321b816137ad565b602085010191505092915050565b6000601082527f56616c7565206e6f7420726967687421000000000000000000000000000000006020830152604082019050919050565b6000601282527f416363657373206e6f7420616c6c6f77656400000000000000000000000000006020830152604082019050919050565b6000600e82527f4e6f7420417574686f72697a65640000000000000000000000000000000000006020830152604082019050919050565b60006080830160008301516132e660008601826134de565b50602083015184820360208601526132fe82826131f3565b9150506040830151848203604086015261331882826131f3565b915050606083015161332d60608601826134de565b508091505092915050565b60006101208301600083015161335160008601826134ed565b5060208301516133646020860182613131565b506040830151848203604086015261337c82826131f3565b9150506060830151848203606086015261339682826131f3565b915050608083015184820360808601526133b082826131f3565b91505060a08301516133c560a08601826134de565b5060c08301516133d860c08601826134de565b5060e08301516133eb60e08601826134de565b506101008301516134006101008601826134de565b508091505092915050565b60006101208301600083015161342460008601826134ed565b5060208301516134376020860182613131565b506040830151848203604086015261344f82826131f3565b9150506060830151848203606086015261346982826131f3565b9150506080830151848203608086015261348382826131f3565b91505060a083015161349860a08601826134de565b5060c08301516134ab60c08601826134de565b5060e08301516134be60e08601826134de565b506101008301516134d36101008601826134de565b508091505092915050565b6134e78161371d565b82525050565b6134f681613727565b82525050565b6000602082019050818103600083015261351581613229565b9050919050565b6000602082019050818103600083015261353581613260565b9050919050565b6000602082019050818103600083015261355581613297565b9050919050565b6000602082019050818103600083015261357681846132ce565b905092915050565b600060208201905081810360008301526135988184613338565b905092915050565b600060608201905081810360008301526135ba8186613338565b905081810360208301526135ce81856131bd565b90506135dd60408301846131ae565b949350505050565b60006020820190506135fa60008301846134de565b92915050565b600060208201905061361560008301846134ed565b92915050565b600060408201905061363060008301856134ed565b81810360208301526136428184613140565b90509392505050565b6000604051905081810181811067ffffffffffffffff8211171561366e57600080fd5b8060405250919050565b600067ffffffffffffffff82111561368f57600080fd5b601f19601f8301169050602081019050919050565b6000602082019050919050565b600081519050919050565b600081519050919050565b600081519050919050565b6000602082019050919050565b60006136ea826136fd565b9050919050565b60008115159050919050565b600073ffffffffffffffffffffffffffffffffffffffff82169050919050565b6000819050919050565b600067ffffffffffffffff82169050919050565b6000613746826136fd565b9050919050565b6000819050919050565b600067ffffffffffffffff82169050919050565b82818337600083830152505050565b60005b8381101561379857808201518184015260208101905061377d565b838111156137a7576000848401525b50505050565b6000601f19601f830116905091905056fea265627a7a7230582017420f68b059a35a546d4d7b0474770e5826ec2f52bfc4f30f0c930ae5a7ca306c6578706572696d656e74616cf50037",
  "source": "pragma solidity ^0.5;\npragma experimental ABIEncoderV2;\n\ncontract ServiceRegistry {\n  struct Service {\n    uint64 id;\n    address payable owner;\n    string name;\n    string category;\n    string description;\n    uint price;\n    uint ratingTotal;\n    uint ratingCount;\n    uint timestamp;\n  }\n  Service[] services;\n\n  struct ServiceDescription {\n    uint version;\n    string fileName;\n    string fileContent;\n    uint timestamp;\n  }\n\n\n  uint64 serviceCount;\n  uint64 i;\n\n  mapping(uint64 => uint64) indexes;\n  mapping(uint64 => string) additionalInfos;\n  mapping(uint64 => ServiceDescription[]) private descriptions;\n  mapping(uint64 => mapping(address => uint64)) userRate;\n  mapping(address => mapping(uint64 => bool)) acl;\n  mapping(address => uint[]) public myservices;\n\n  address owner = msg.sender;\n\n  constructor() public {\n    serviceCount = 0;\n    i = 0;\n  }\n\n\n  function addService(string memory _name, string memory _category, string memory _description, uint _price, string memory additionalInfo, string memory fileName, string memory fileContent)  public returns (Service memory){\n    Service memory created = Service(i, msg.sender, _name, _category, _description, _price, 0,0,now);\n    services.push(created);\n    indexes[i] = serviceCount;\n    myservices[msg.sender].push(i);\n    serviceCount++;\n    if(bytes(additionalInfo).length != 0x0) {\n      additionalInfos[i] = additionalInfo;\n    }\n    descriptions[i].push(ServiceDescription(1, fileName, fileContent, now));\n    i++;\n    return (created);\n  }\n  function getMyLatestServiceId() public returns (uint) {\n    return myservices[msg.sender][myservices[msg.sender].length-1];\n  }\n  function getAllServices() public view returns(uint64, Service[] memory) {\n    return (serviceCount, services);\n  }\n  function getServiceDetail(uint64 id) public view returns(Service memory generalInfo, string memory additionalInfo, bool allowed) {\n    uint64 index = indexes[id];\n    bool allow = acl[msg.sender][id] || services[index].owner == msg.sender || services[index].price == 0;\n    return (services[index], additionalInfos[index], allow);\n  }\n  function getServiceDescription(uint64 id) public view returns(ServiceDescription memory serviceDescription) {\n    uint64 index = indexes[id];\n    bool allowed = acl[msg.sender][id] || services[index].owner == msg.sender || services[index].price == 0;\n    require(allowed, \"Access not allowed\");\n    return (descriptions[id][descriptions[id].length-1]);\n  }\n  function getServiceDescription(uint64 id, uint version) public view returns(ServiceDescription memory serviceDesciption) {\n    uint64 index = indexes[id];\n    bool allowed = acl[msg.sender][id] || services[index].owner == msg.sender || services[index].price == 0;\n    require(allowed, \"Access not allowed\");\n    require(version <= descriptions[id].length);\n    return (descriptions[id][version-1]);\n\n  }\n\n  function deleteService(uint64 id) public {\n    uint64 index = indexes[id];\n    Service memory deleted = services[index];\n    require(msg.sender == deleted.owner);\n    Service memory latest = services[serviceCount-1];\n    services[index] = latest;\n    services.pop();\n    indexes[latest.id] = index;\n    serviceCount--;\n  }\n\n  function payForService(uint64 id) payable public {\n    uint64 index = indexes[id];\n    Service memory service = services[index];\n    require(msg.value >= service.price, \"Value not right!\");\n    service.owner.transfer(service.price);\n    acl[msg.sender][id] = true;\n  }\n\n  function updateDescription(uint64 id, string memory fileName, string memory fileDescription) public {\n    uint64 index = indexes[id];\n    require (msg.sender == services[index].owner, \"Not Authorized\");\n    uint version = descriptions[id].length+1;\n    descriptions[id].push(ServiceDescription(version, fileName, fileDescription, now));\n  }\n\n  function rateService(uint64 id, uint64 rate) public {\n    uint64 index = indexes[id];\n    bool allowed = (acl[msg.sender][id] || services[index].price == 0) && services[index].owner != msg.sender;\n    require(allowed, \"Access not allowed\");\n    uint64 val = rate*100;\n    if(userRate[id][msg.sender] == 0) {\n      services[index].ratingTotal += val;\n      services[index].ratingCount++;\n      userRate[id][msg.sender] = val;\n    } else {\n      services[index].ratingTotal -= userRate[id][msg.sender];\n      services[index].ratingTotal += val;\n      userRate[id][msg.sender] = val;\n    }\n  }\n  function getUserRate(uint64 id) public returns (uint64) {\n    return userRate[id][msg.sender];\n  }\n}\n",
  "sourcePath": "/Users/kanisiuskeneth/Documents/TA/dicey/backend/contracts/ServiceRegistry.sol",
  "compiler": {
    "name": "solc",
    "version": "0.5.0+commit.1d4f565a.Emscripten.clang"
  },
  "schemaVersion": "3.0.6",
  "updatedAt": "2019-07-11T02:51:16.649Z",
  "devdoc": {
    "methods": {}
  },
  "userdoc": {
    "methods": {}
  }
}