{
  "contractName": "ServiceRegistry",
  "abi": [
    {
      "constant": true,
      "inputs": [
        {
          "name": "",
          "type": "address"
        },
        {
          "name": "",
          "type": "uint256"
        }
      ],
      "name": "myservices",
      "outputs": [
        {
          "name": "",
          "type": "uint256"
        }
      ],
      "payable": false,
      "stateMutability": "view",
      "type": "function",
      "signature": "0x9748944a"
    },
    {
      "inputs": [],
      "payable": false,
      "stateMutability": "nonpayable",
      "type": "constructor",
      "signature": "constructor"
    },
    {
      "constant": false,
      "inputs": [
        {
          "name": "_name",
          "type": "string"
        },
        {
          "name": "_category",
          "type": "string"
        },
        {
          "name": "_description",
          "type": "string"
        },
        {
          "name": "_price",
          "type": "uint256"
        },
        {
          "name": "additionalInfo",
          "type": "string"
        },
        {
          "name": "fileName",
          "type": "string"
        },
        {
          "name": "fileContent",
          "type": "string"
        }
      ],
      "name": "addService",
      "outputs": [
        {
          "components": [
            {
              "name": "id",
              "type": "uint64"
            },
            {
              "name": "owner",
              "type": "address"
            },
            {
              "name": "name",
              "type": "string"
            },
            {
              "name": "category",
              "type": "string"
            },
            {
              "name": "description",
              "type": "string"
            },
            {
              "name": "price",
              "type": "uint256"
            },
            {
              "name": "timestamp",
              "type": "uint256"
            }
          ],
          "name": "",
          "type": "tuple"
        }
      ],
      "payable": false,
      "stateMutability": "nonpayable",
      "type": "function",
      "signature": "0x94b59e32"
    },
    {
      "constant": false,
      "inputs": [],
      "name": "getMyLatestServiceId",
      "outputs": [
        {
          "name": "",
          "type": "uint256"
        }
      ],
      "payable": false,
      "stateMutability": "nonpayable",
      "type": "function",
      "signature": "0x9bb2ca71"
    },
    {
      "constant": true,
      "inputs": [],
      "name": "getAllServices",
      "outputs": [
        {
          "name": "",
          "type": "uint64"
        },
        {
          "components": [
            {
              "name": "id",
              "type": "uint64"
            },
            {
              "name": "owner",
              "type": "address"
            },
            {
              "name": "name",
              "type": "string"
            },
            {
              "name": "category",
              "type": "string"
            },
            {
              "name": "description",
              "type": "string"
            },
            {
              "name": "price",
              "type": "uint256"
            },
            {
              "name": "timestamp",
              "type": "uint256"
            }
          ],
          "name": "",
          "type": "tuple[]"
        }
      ],
      "payable": false,
      "stateMutability": "view",
      "type": "function",
      "signature": "0x21fe0f30"
    },
    {
      "constant": true,
      "inputs": [
        {
          "name": "id",
          "type": "uint64"
        }
      ],
      "name": "getServiceDetail",
      "outputs": [
        {
          "components": [
            {
              "name": "id",
              "type": "uint64"
            },
            {
              "name": "owner",
              "type": "address"
            },
            {
              "name": "name",
              "type": "string"
            },
            {
              "name": "category",
              "type": "string"
            },
            {
              "name": "description",
              "type": "string"
            },
            {
              "name": "price",
              "type": "uint256"
            },
            {
              "name": "timestamp",
              "type": "uint256"
            }
          ],
          "name": "generalInfo",
          "type": "tuple"
        },
        {
          "name": "additionalInfo",
          "type": "string"
        },
        {
          "name": "allowed",
          "type": "bool"
        }
      ],
      "payable": false,
      "stateMutability": "view",
      "type": "function",
      "signature": "0xf76c7fde"
    },
    {
      "constant": true,
      "inputs": [
        {
          "name": "id",
          "type": "uint64"
        },
        {
          "name": "version",
          "type": "uint256"
        }
      ],
      "name": "getServiceDescription",
      "outputs": [
        {
          "components": [
            {
              "name": "version",
              "type": "uint256"
            },
            {
              "name": "fileName",
              "type": "string"
            },
            {
              "name": "fileContent",
              "type": "string"
            },
            {
              "name": "timestamp",
              "type": "uint256"
            }
          ],
          "name": "serviceDesciption",
          "type": "tuple"
        }
      ],
      "payable": false,
      "stateMutability": "view",
      "type": "function",
      "signature": "0x7c80ce81"
    },
    {
      "constant": true,
      "inputs": [
        {
          "name": "id",
          "type": "uint64"
        }
      ],
      "name": "getServiceDescription",
      "outputs": [
        {
          "components": [
            {
              "name": "version",
              "type": "uint256"
            },
            {
              "name": "fileName",
              "type": "string"
            },
            {
              "name": "fileContent",
              "type": "string"
            },
            {
              "name": "timestamp",
              "type": "uint256"
            }
          ],
          "name": "serviceDescription",
          "type": "tuple"
        }
      ],
      "payable": false,
      "stateMutability": "view",
      "type": "function",
      "signature": "0x8d9f654c"
    },
    {
      "constant": false,
      "inputs": [
        {
          "name": "id",
          "type": "uint64"
        }
      ],
      "name": "deleteService",
      "outputs": [],
      "payable": false,
      "stateMutability": "nonpayable",
      "type": "function",
      "signature": "0x8a32a325"
    },
    {
      "constant": false,
      "inputs": [
        {
          "name": "id",
          "type": "uint64"
        }
      ],
      "name": "payForService",
      "outputs": [],
      "payable": true,
      "stateMutability": "payable",
      "type": "function",
      "signature": "0x445ea813"
    },
    {
      "constant": false,
      "inputs": [
        {
          "name": "id",
          "type": "uint64"
        },
        {
          "name": "fileName",
          "type": "string"
        },
        {
          "name": "fileDescription",
          "type": "string"
        }
      ],
      "name": "updateDescription",
      "outputs": [],
      "payable": false,
      "stateMutability": "nonpayable",
      "type": "function",
      "signature": "0xabf818f6"
    }
  ],
  "bytecode": "0x608060405233600760006101000a81548173ffffffffffffffffffffffffffffffffffffffff021916908373ffffffffffffffffffffffffffffffffffffffff16021790555034801561005157600080fd5b506000600160006101000a81548167ffffffffffffffff021916908367ffffffffffffffff1602179055506000600160086101000a81548167ffffffffffffffff021916908367ffffffffffffffff1602179055506130b4806100b56000396000f3fe6080604052600436106100a4576000357c0100000000000000000000000000000000000000000000000000000000900463ffffffff16806321fe0f30146100a9578063445ea813146100d55780637c80ce81146100f15780638a32a3251461012e5780638d9f654c1461015757806394b59e32146101945780639748944a146101d15780639bb2ca711461020e578063abf818f614610239578063f76c7fde14610262575b600080fd5b3480156100b557600080fd5b506100be6102a1565b6040516100cc929190612ed7565b60405180910390f35b6100ef60048036036100ea9190810190612976565b6105a2565b005b3480156100fd57600080fd5b5061011860048036036101139190810190612a1e565b6109bb565b6040516101259190612e33565b60405180910390f35b34801561013a57600080fd5b5061015560048036036101509190810190612976565b610d5b565b005b34801561016357600080fd5b5061017e60048036036101799190810190612976565b6115c3565b60405161018b9190612e33565b60405180910390f35b3480156101a057600080fd5b506101bb60048036036101b69190810190612848565b611953565b6040516101c89190612e55565b60405180910390f35b3480156101dd57600080fd5b506101f860048036036101f3919081019061280c565b611dbb565b6040516102059190612ebc565b60405180910390f35b34801561021a57600080fd5b50610223611deb565b6040516102309190612ebc565b60405180910390f35b34801561024557600080fd5b50610260600480360361025b919081019061299f565b611e8e565b005b34801561026e57600080fd5b5061028960048036036102849190810190612976565b612086565b60405161029893929190612e77565b60405180910390f35b60006060600160009054906101000a900467ffffffffffffffff16600080805480602002602001604051908101604052809291908181526020016000905b82821015610594578382906000526020600020906006020160e060405190810160405290816000820160009054906101000a900467ffffffffffffffff1667ffffffffffffffff1667ffffffffffffffff1681526020016000820160089054906101000a900473ffffffffffffffffffffffffffffffffffffffff1673ffffffffffffffffffffffffffffffffffffffff1673ffffffffffffffffffffffffffffffffffffffff168152602001600182018054600181600116156101000203166002900480601f0160208091040260200160405190810160405280929190818152602001828054600181600116156101000203166002900480156104245780601f106103f957610100808354040283529160200191610424565b820191906000526020600020905b81548152906001019060200180831161040757829003601f168201915b50505050508152602001600282018054600181600116156101000203166002900480601f0160208091040260200160405190810160405280929190818152602001828054600181600116156101000203166002900480156104c65780601f1061049b576101008083540402835291602001916104c6565b820191906000526020600020905b8154815290600101906020018083116104a957829003601f168201915b50505050508152602001600382018054600181600116156101000203166002900480601f0160208091040260200160405190810160405280929190818152602001828054600181600116156101000203166002900480156105685780601f1061053d57610100808354040283529160200191610568565b820191906000526020600020905b81548152906001019060200180831161054b57829003601f168201915b5050505050815260200160048201548152602001600582015481525050815260200190600101906102df565b505050509050915091509091565b6000600260008367ffffffffffffffff1667ffffffffffffffff16815260200190815260200160002060009054906101000a900467ffffffffffffffff1690506105ea612586565b60008267ffffffffffffffff1681548110151561060357fe5b906000526020600020906006020160e060405190810160405290816000820160009054906101000a900467ffffffffffffffff1667ffffffffffffffff1667ffffffffffffffff1681526020016000820160089054906101000a900473ffffffffffffffffffffffffffffffffffffffff1673ffffffffffffffffffffffffffffffffffffffff1673ffffffffffffffffffffffffffffffffffffffff168152602001600182018054600181600116156101000203166002900480601f01602080910402602001604051908101604052809291908181526020018280546001816001161561010002031660029004801561073e5780601f106107135761010080835404028352916020019161073e565b820191906000526020600020905b81548152906001019060200180831161072157829003601f168201915b50505050508152602001600282018054600181600116156101000203166002900480601f0160208091040260200160405190810160405280929190818152602001828054600181600116156101000203166002900480156107e05780601f106107b5576101008083540402835291602001916107e0565b820191906000526020600020905b8154815290600101906020018083116107c357829003601f168201915b50505050508152602001600382018054600181600116156101000203166002900480601f0160208091040260200160405190810160405280929190818152602001828054600181600116156101000203166002900480156108825780601f1061085757610100808354040283529160200191610882565b820191906000526020600020905b81548152906001019060200180831161086557829003601f168201915b505050505081526020016004820154815260200160058201548152505090508060a0015134101515156108ea576040517f08c379a00000000000000000000000000000000000000000000000000000000081526004016108e190612dd3565b60405180910390fd5b806020015173ffffffffffffffffffffffffffffffffffffffff166108fc8260a001519081150290604051600060405180830381858888f19350505050158015610938573d6000803e3d6000fd5b506001600560003373ffffffffffffffffffffffffffffffffffffffff1673ffffffffffffffffffffffffffffffffffffffff16815260200190815260200160002060008567ffffffffffffffff1667ffffffffffffffff16815260200190815260200160002060006101000a81548160ff021916908315150217905550505050565b6109c36125e4565b6000600260008567ffffffffffffffff1667ffffffffffffffff16815260200190815260200160002060009054906101000a900467ffffffffffffffff1690506000600560003373ffffffffffffffffffffffffffffffffffffffff1673ffffffffffffffffffffffffffffffffffffffff16815260200190815260200160002060008667ffffffffffffffff1667ffffffffffffffff16815260200190815260200160002060009054906101000a900460ff1680610af757503373ffffffffffffffffffffffffffffffffffffffff1660008367ffffffffffffffff16815481101515610aad57fe5b906000526020600020906006020160000160089054906101000a900473ffffffffffffffffffffffffffffffffffffffff1673ffffffffffffffffffffffffffffffffffffffff16145b80610b2b57506000808367ffffffffffffffff16815481101515610b1757fe5b906000526020600020906006020160040154145b9050801515610b6f576040517f08c379a0000000000000000000000000000000000000000000000000000000008152600401610b6690612df3565b60405180910390fd5b600460008667ffffffffffffffff1667ffffffffffffffff168152602001908152602001600020805490508411151515610ba857600080fd5b600460008667ffffffffffffffff1667ffffffffffffffff16815260200190815260200160002060018503815481101515610bdf57fe5b90600052602060002090600402016080604051908101604052908160008201548152602001600182018054600181600116156101000203166002900480601f016020809104026020016040519081016040528092919081815260200182805460018160011615610100020316600290048015610c9c5780601f10610c7157610100808354040283529160200191610c9c565b820191906000526020600020905b815481529060010190602001808311610c7f57829003601f168201915b50505050508152602001600282018054600181600116156101000203166002900480601f016020809104026020016040519081016040528092919081815260200182805460018160011615610100020316600290048015610d3e5780601f10610d1357610100808354040283529160200191610d3e565b820191906000526020600020905b815481529060010190602001808311610d2157829003601f168201915b505050505081526020016003820154815250509250505092915050565b6000600260008367ffffffffffffffff1667ffffffffffffffff16815260200190815260200160002060009054906101000a900467ffffffffffffffff169050610da3612586565b60008267ffffffffffffffff16815481101515610dbc57fe5b906000526020600020906006020160e060405190810160405290816000820160009054906101000a900467ffffffffffffffff1667ffffffffffffffff1667ffffffffffffffff1681526020016000820160089054906101000a900473ffffffffffffffffffffffffffffffffffffffff1673ffffffffffffffffffffffffffffffffffffffff1673ffffffffffffffffffffffffffffffffffffffff168152602001600182018054600181600116156101000203166002900480601f016020809104026020016040519081016040528092919081815260200182805460018160011615610100020316600290048015610ef75780601f10610ecc57610100808354040283529160200191610ef7565b820191906000526020600020905b815481529060010190602001808311610eda57829003601f168201915b50505050508152602001600282018054600181600116156101000203166002900480601f016020809104026020016040519081016040528092919081815260200182805460018160011615610100020316600290048015610f995780601f10610f6e57610100808354040283529160200191610f99565b820191906000526020600020905b815481529060010190602001808311610f7c57829003601f168201915b50505050508152602001600382018054600181600116156101000203166002900480601f01602080910402602001604051908101604052809291908181526020018280546001816001161561010002031660029004801561103b5780601f106110105761010080835404028352916020019161103b565b820191906000526020600020905b81548152906001019060200180831161101e57829003601f168201915b50505050508152602001600482015481526020016005820154815250509050806020015173ffffffffffffffffffffffffffffffffffffffff163373ffffffffffffffffffffffffffffffffffffffff1614151561109857600080fd5b6110a0612586565b600060018060009054906101000a900467ffffffffffffffff160367ffffffffffffffff168154811015156110d157fe5b906000526020600020906006020160e060405190810160405290816000820160009054906101000a900467ffffffffffffffff1667ffffffffffffffff1667ffffffffffffffff1681526020016000820160089054906101000a900473ffffffffffffffffffffffffffffffffffffffff1673ffffffffffffffffffffffffffffffffffffffff1673ffffffffffffffffffffffffffffffffffffffff168152602001600182018054600181600116156101000203166002900480601f01602080910402602001604051908101604052809291908181526020018280546001816001161561010002031660029004801561120c5780601f106111e15761010080835404028352916020019161120c565b820191906000526020600020905b8154815290600101906020018083116111ef57829003601f168201915b50505050508152602001600282018054600181600116156101000203166002900480601f0160208091040260200160405190810160405280929190818152602001828054600181600116156101000203166002900480156112ae5780601f10611283576101008083540402835291602001916112ae565b820191906000526020600020905b81548152906001019060200180831161129157829003601f168201915b50505050508152602001600382018054600181600116156101000203166002900480601f0160208091040260200160405190810160405280929190818152602001828054600181600116156101000203166002900480156113505780601f1061132557610100808354040283529160200191611350565b820191906000526020600020905b81548152906001019060200180831161133357829003601f168201915b505050505081526020016004820154815260200160058201548152505090508060008467ffffffffffffffff1681548110151561138957fe5b906000526020600020906006020160008201518160000160006101000a81548167ffffffffffffffff021916908367ffffffffffffffff16021790555060208201518160000160086101000a81548173ffffffffffffffffffffffffffffffffffffffff021916908373ffffffffffffffffffffffffffffffffffffffff160217905550604082015181600101908051906020019061142992919061260d565b50606082015181600201908051906020019061144692919061260d565b50608082015181600301908051906020019061146392919061260d565b5060a0820151816004015560c082015181600501559050506000805480151561148857fe5b6001900381819060005260206000209060060201600080820160006101000a81549067ffffffffffffffff02191690556000820160086101000a81549073ffffffffffffffffffffffffffffffffffffffff02191690556001820160006114ef919061268d565b6002820160006114ff919061268d565b60038201600061150f919061268d565b60048201600090556005820160009055505090558260026000836000015167ffffffffffffffff1667ffffffffffffffff16815260200190815260200160002060006101000a81548167ffffffffffffffff021916908367ffffffffffffffff1602179055506001600081819054906101000a900467ffffffffffffffff16809291906001900391906101000a81548167ffffffffffffffff021916908367ffffffffffffffff1602179055505050505050565b6115cb6125e4565b6000600260008467ffffffffffffffff1667ffffffffffffffff16815260200190815260200160002060009054906101000a900467ffffffffffffffff1690506000600560003373ffffffffffffffffffffffffffffffffffffffff1673ffffffffffffffffffffffffffffffffffffffff16815260200190815260200160002060008567ffffffffffffffff1667ffffffffffffffff16815260200190815260200160002060009054906101000a900460ff16806116ff57503373ffffffffffffffffffffffffffffffffffffffff1660008367ffffffffffffffff168154811015156116b557fe5b906000526020600020906006020160000160089054906101000a900473ffffffffffffffffffffffffffffffffffffffff1673ffffffffffffffffffffffffffffffffffffffff16145b8061173357506000808367ffffffffffffffff1681548110151561171f57fe5b906000526020600020906006020160040154145b9050801515611777576040517f08c379a000000000000000000000000000000000000000000000000000000000815260040161176e90612df3565b60405180910390fd5b600460008567ffffffffffffffff1667ffffffffffffffff1681526020019081526020016000206001600460008767ffffffffffffffff1667ffffffffffffffff16815260200190815260200160002080549050038154811015156117d857fe5b90600052602060002090600402016080604051908101604052908160008201548152602001600182018054600181600116156101000203166002900480601f0160208091040260200160405190810160405280929190818152602001828054600181600116156101000203166002900480156118955780601f1061186a57610100808354040283529160200191611895565b820191906000526020600020905b81548152906001019060200180831161187857829003601f168201915b50505050508152602001600282018054600181600116156101000203166002900480601f0160208091040260200160405190810160405280929190818152602001828054600181600116156101000203166002900480156119375780601f1061190c57610100808354040283529160200191611937565b820191906000526020600020905b81548152906001019060200180831161191a57829003601f168201915b5050505050815260200160038201548152505092505050919050565b61195b612586565b611963612586565b60e060405190810160405280600160089054906101000a900467ffffffffffffffff1667ffffffffffffffff1681526020013373ffffffffffffffffffffffffffffffffffffffff1681526020018a81526020018981526020018881526020018781526020014281525090506000819080600181540180825580915050906001820390600052602060002090600602016000909192909190915060008201518160000160006101000a81548167ffffffffffffffff021916908367ffffffffffffffff16021790555060208201518160000160086101000a81548173ffffffffffffffffffffffffffffffffffffffff021916908373ffffffffffffffffffffffffffffffffffffffff1602179055506040820151816001019080519060200190611a8f92919061260d565b506060820151816002019080519060200190611aac92919061260d565b506080820151816003019080519060200190611ac992919061260d565b5060a0820151816004015560c08201518160050155505050600160009054906101000a900467ffffffffffffffff1660026000600160089054906101000a900467ffffffffffffffff1667ffffffffffffffff1667ffffffffffffffff16815260200190815260200160002060006101000a81548167ffffffffffffffff021916908367ffffffffffffffff160217905550600660003373ffffffffffffffffffffffffffffffffffffffff1673ffffffffffffffffffffffffffffffffffffffff168152602001908152602001600020600160089054906101000a900467ffffffffffffffff169080600181540180825580915050906001820390600052602060002001600090919267ffffffffffffffff16909190915055506001600081819054906101000a900467ffffffffffffffff168092919060010191906101000a81548167ffffffffffffffff021916908367ffffffffffffffff1602179055505060008551141515611c89578460036000600160089054906101000a900467ffffffffffffffff1667ffffffffffffffff1667ffffffffffffffff1681526020019081526020016000209080519060200190611c879291906126d5565b505b60046000600160089054906101000a900467ffffffffffffffff1667ffffffffffffffff1667ffffffffffffffff168152602001908152602001600020608060405190810160405280600181526020018681526020018581526020014281525090806001815401808255809150509060018203906000526020600020906004020160009091929091909150600082015181600001556020820151816001019080519060200190611d3a92919061260d565b506040820151816002019080519060200190611d5792919061260d565b50606082015181600301555050506001600881819054906101000a900467ffffffffffffffff168092919060010191906101000a81548167ffffffffffffffff021916908367ffffffffffffffff1602179055505080915050979650505050505050565b600660205281600052604060002081815481101515611dd657fe5b90600052602060002001600091509150505481565b6000600660003373ffffffffffffffffffffffffffffffffffffffff1673ffffffffffffffffffffffffffffffffffffffff1681526020019081526020016000206001600660003373ffffffffffffffffffffffffffffffffffffffff1673ffffffffffffffffffffffffffffffffffffffff1681526020019081526020016000208054905003815481101515611e7e57fe5b9060005260206000200154905090565b6000600260008567ffffffffffffffff1667ffffffffffffffff16815260200190815260200160002060009054906101000a900467ffffffffffffffff16905060008167ffffffffffffffff16815481101515611ee757fe5b906000526020600020906006020160000160089054906101000a900473ffffffffffffffffffffffffffffffffffffffff1673ffffffffffffffffffffffffffffffffffffffff163373ffffffffffffffffffffffffffffffffffffffff16141515611f88576040517f08c379a0000000000000000000000000000000000000000000000000000000008152600401611f7f90612e13565b60405180910390fd5b60006001600460008767ffffffffffffffff1667ffffffffffffffff16815260200190815260200160002080549050019050600460008667ffffffffffffffff1667ffffffffffffffff168152602001908152602001600020608060405190810160405280838152602001868152602001858152602001428152509080600181540180825580915050906001820390600052602060002090600402016000909192909190915060008201518160000155602082015181600101908051906020019061205492919061260d565b50604082015181600201908051906020019061207192919061260d565b50606082015181600301555050505050505050565b61208e612586565b6060600080600260008667ffffffffffffffff1667ffffffffffffffff16815260200190815260200160002060009054906101000a900467ffffffffffffffff1690506000600560003373ffffffffffffffffffffffffffffffffffffffff1673ffffffffffffffffffffffffffffffffffffffff16815260200190815260200160002060008767ffffffffffffffff1667ffffffffffffffff16815260200190815260200160002060009054906101000a900460ff16806121c557503373ffffffffffffffffffffffffffffffffffffffff1660008367ffffffffffffffff1681548110151561217b57fe5b906000526020600020906006020160000160089054906101000a900473ffffffffffffffffffffffffffffffffffffffff1673ffffffffffffffffffffffffffffffffffffffff16145b806121f957506000808367ffffffffffffffff168154811015156121e557fe5b906000526020600020906006020160040154145b905060008267ffffffffffffffff1681548110151561221457fe5b9060005260206000209060060201600360008467ffffffffffffffff1667ffffffffffffffff168152602001908152602001600020828260e060405190810160405290816000820160009054906101000a900467ffffffffffffffff1667ffffffffffffffff1667ffffffffffffffff1681526020016000820160089054906101000a900473ffffffffffffffffffffffffffffffffffffffff1673ffffffffffffffffffffffffffffffffffffffff1673ffffffffffffffffffffffffffffffffffffffff168152602001600182018054600181600116156101000203166002900480601f0160208091040260200160405190810160405280929190818152602001828054600181600116156101000203166002900480156123785780601f1061234d57610100808354040283529160200191612378565b820191906000526020600020905b81548152906001019060200180831161235b57829003601f168201915b50505050508152602001600282018054600181600116156101000203166002900480601f01602080910402602001604051908101604052809291908181526020018280546001816001161561010002031660029004801561241a5780601f106123ef5761010080835404028352916020019161241a565b820191906000526020600020905b8154815290600101906020018083116123fd57829003601f168201915b50505050508152602001600382018054600181600116156101000203166002900480601f0160208091040260200160405190810160405280929190818152602001828054600181600116156101000203166002900480156124bc5780601f10612491576101008083540402835291602001916124bc565b820191906000526020600020905b81548152906001019060200180831161249f57829003601f168201915b50505050508152602001600482015481526020016005820154815250509250818054600181600116156101000203166002900480601f0160208091040260200160405190810160405280929190818152602001828054600181600116156101000203166002900480156125705780601f1061254557610100808354040283529160200191612570565b820191906000526020600020905b81548152906001019060200180831161255357829003601f168201915b5050505050915094509450945050509193909250565b60e060405190810160405280600067ffffffffffffffff168152602001600073ffffffffffffffffffffffffffffffffffffffff16815260200160608152602001606081526020016060815260200160008152602001600081525090565b608060405190810160405280600081526020016060815260200160608152602001600081525090565b828054600181600116156101000203166002900490600052602060002090601f016020900481019282601f1061264e57805160ff191683800117855561267c565b8280016001018555821561267c579182015b8281111561267b578251825591602001919060010190612660565b5b5090506126899190612755565b5090565b50805460018160011615610100020316600290046000825580601f106126b357506126d2565b601f0160209004906000526020600020908101906126d19190612755565b5b50565b828054600181600116156101000203166002900490600052602060002090601f016020900481019282601f1061271657805160ff1916838001178555612744565b82800160010185558215612744579182015b82811115612743578251825591602001919060010190612728565b5b5090506127519190612755565b5090565b61277791905b8082111561277357600081600090555060010161275b565b5090565b90565b60006127868235612ff7565b905092915050565b600082601f83011215156127a157600080fd5b81356127b46127af82612f34565b612f07565b915080825260208301602083018583830111156127d057600080fd5b6127db838284613027565b50505092915050565b60006127f08235613009565b905092915050565b60006128048235613013565b905092915050565b6000806040838503121561281f57600080fd5b600061282d8582860161277a565b925050602061283e858286016127e4565b9150509250929050565b600080600080600080600060e0888a03121561286357600080fd5b600088013567ffffffffffffffff81111561287d57600080fd5b6128898a828b0161278e565b975050602088013567ffffffffffffffff8111156128a657600080fd5b6128b28a828b0161278e565b965050604088013567ffffffffffffffff8111156128cf57600080fd5b6128db8a828b0161278e565b95505060606128ec8a828b016127e4565b945050608088013567ffffffffffffffff81111561290957600080fd5b6129158a828b0161278e565b93505060a088013567ffffffffffffffff81111561293257600080fd5b61293e8a828b0161278e565b92505060c088013567ffffffffffffffff81111561295b57600080fd5b6129678a828b0161278e565b91505092959891949750929550565b60006020828403121561298857600080fd5b6000612996848285016127f8565b91505092915050565b6000806000606084860312156129b457600080fd5b60006129c2868287016127f8565b935050602084013567ffffffffffffffff8111156129df57600080fd5b6129eb8682870161278e565b925050604084013567ffffffffffffffff811115612a0857600080fd5b612a148682870161278e565b9150509250925092565b60008060408385031215612a3157600080fd5b6000612a3f858286016127f8565b9250506020612a50858286016127e4565b9150509250929050565b612a6381612f9b565b82525050565b6000612a7482612f6d565b80845260208401935083602082028501612a8d85612f60565b60005b84811015612ac6578383038852612aa8838351612d0b565b9250612ab382612f8e565b9150602088019750600181019050612a90565b508196508694505050505092915050565b612ae081612fad565b82525050565b6000612af182612f83565b808452612b05816020860160208601613036565b612b0e81613069565b602085010191505092915050565b6000612b2782612f78565b808452612b3b816020860160208601613036565b612b4481613069565b602085010191505092915050565b6000601082527f56616c7565206e6f7420726967687421000000000000000000000000000000006020830152604082019050919050565b6000601282527f416363657373206e6f7420616c6c6f77656400000000000000000000000000006020830152604082019050919050565b6000600e82527f4e6f7420417574686f72697a65640000000000000000000000000000000000006020830152604082019050919050565b6000608083016000830151612c0f6000860182612db5565b5060208301518482036020860152612c278282612b1c565b91505060408301518482036040860152612c418282612b1c565b9150506060830151612c566060860182612db5565b508091505092915050565b600060e083016000830151612c796000860182612dc4565b506020830151612c8c6020860182612a5a565b5060408301518482036040860152612ca48282612b1c565b91505060608301518482036060860152612cbe8282612b1c565b91505060808301518482036080860152612cd88282612b1c565b91505060a0830151612ced60a0860182612db5565b5060c0830151612d0060c0860182612db5565b508091505092915050565b600060e083016000830151612d236000860182612dc4565b506020830151612d366020860182612a5a565b5060408301518482036040860152612d4e8282612b1c565b91505060608301518482036060860152612d688282612b1c565b91505060808301518482036080860152612d828282612b1c565b91505060a0830151612d9760a0860182612db5565b5060c0830151612daa60c0860182612db5565b508091505092915050565b612dbe81612fd9565b82525050565b612dcd81612fe3565b82525050565b60006020820190508181036000830152612dec81612b52565b9050919050565b60006020820190508181036000830152612e0c81612b89565b9050919050565b60006020820190508181036000830152612e2c81612bc0565b9050919050565b60006020820190508181036000830152612e4d8184612bf7565b905092915050565b60006020820190508181036000830152612e6f8184612c61565b905092915050565b60006060820190508181036000830152612e918186612c61565b90508181036020830152612ea58185612ae6565b9050612eb46040830184612ad7565b949350505050565b6000602082019050612ed16000830184612db5565b92915050565b6000604082019050612eec6000830185612dc4565b8181036020830152612efe8184612a69565b90509392505050565b6000604051905081810181811067ffffffffffffffff82111715612f2a57600080fd5b8060405250919050565b600067ffffffffffffffff821115612f4b57600080fd5b601f19601f8301169050602081019050919050565b6000602082019050919050565b600081519050919050565b600081519050919050565b600081519050919050565b6000602082019050919050565b6000612fa682612fb9565b9050919050565b60008115159050919050565b600073ffffffffffffffffffffffffffffffffffffffff82169050919050565b6000819050919050565b600067ffffffffffffffff82169050919050565b600061300282612fb9565b9050919050565b6000819050919050565b600067ffffffffffffffff82169050919050565b82818337600083830152505050565b60005b83811015613054578082015181840152602081019050613039565b83811115613063576000848401525b50505050565b6000601f19601f830116905091905056fea265627a7a7230582030b8d1175980d77a7ad50790b54ed6a2b1470dc4103558f9ab47a7238160b9476c6578706572696d656e74616cf50037",
  "source": "pragma solidity ^0.5;\npragma experimental ABIEncoderV2;\n\ncontract ServiceRegistry {\n  struct Service {\n    uint64 id;\n    address payable owner;\n    string name;\n    string category;\n    string description;\n    uint price;\n    uint timestamp;\n  }\n  Service[] services;\n\n  struct ServiceDescription {\n    uint version;\n    string fileName;\n    string fileContent;\n    uint timestamp;\n  }\n\n  uint64 serviceCount;\n  uint64 i;\n\n  mapping(uint64 => uint64) indexes;\n  mapping(uint64 => string) additionalInfos;\n  mapping(uint64 => ServiceDescription[]) private descriptions;\n  mapping(address => mapping(uint64 => bool)) acl;\n  mapping(address => uint[]) public myservices;\n  address owner = msg.sender;\n\n  constructor() public {\n    serviceCount = 0;\n    i = 0;\n  }\n\n\n  function addService(string memory _name, string memory _category, string memory _description, uint _price, string memory additionalInfo, string memory fileName, string memory fileContent)  public returns (Service memory){\n    Service memory created = Service(i, msg.sender, _name, _category, _description, _price, now);\n    services.push(created);\n    indexes[i] = serviceCount;\n    myservices[msg.sender].push(i);\n    serviceCount++;\n    if(bytes(additionalInfo).length != 0x0) {\n      additionalInfos[i] = additionalInfo;\n    }\n    descriptions[i].push(ServiceDescription(1, fileName, fileContent, now));\n    i++;\n    return (created);\n  }\n  function getMyLatestServiceId() public returns (uint) {\n    return myservices[msg.sender][myservices[msg.sender].length-1];\n  }\n  function getAllServices() public view returns(uint64, Service[] memory) {\n    return (serviceCount, services);\n  }\n  function getServiceDetail(uint64 id) public view returns(Service memory generalInfo, string memory additionalInfo, bool allowed) {\n    uint64 index = indexes[id];\n    bool allow = acl[msg.sender][id] || services[index].owner == msg.sender || services[index].price == 0;\n    return (services[index], additionalInfos[index], allow);\n  }\n  function getServiceDescription(uint64 id) public view returns(ServiceDescription memory serviceDescription) {\n    uint64 index = indexes[id];\n    bool allowed = acl[msg.sender][id] || services[index].owner == msg.sender || services[index].price == 0;\n    require(allowed, \"Access not allowed\");\n    return (descriptions[id][descriptions[id].length-1]);\n  }\n  function getServiceDescription(uint64 id, uint version) public view returns(ServiceDescription memory serviceDesciption) {\n    uint64 index = indexes[id];\n    bool allowed = acl[msg.sender][id] || services[index].owner == msg.sender || services[index].price == 0;\n    require(allowed, \"Access not allowed\");\n    require(version <= descriptions[id].length);\n    return (descriptions[id][version-1]);\n\n  }\n  function deleteService(uint64 id) public {\n    uint64 index = indexes[id];\n    Service memory deleted = services[index];\n    require(msg.sender == deleted.owner);\n    Service memory latest = services[serviceCount-1];\n    services[index] = latest;\n    services.pop();\n    indexes[latest.id] = index;\n    serviceCount--;\n  }\n  function payForService(uint64 id) payable public {\n    uint64 index = indexes[id];\n    Service memory service = services[index];\n    require(msg.value >= service.price, \"Value not right!\");\n    service.owner.transfer(service.price);\n    acl[msg.sender][id] = true;\n  }\n  function updateDescription(uint64 id, string memory fileName, string memory fileDescription) public {\n    uint64 index = indexes[id];\n    require (msg.sender == services[index].owner, \"Not Authorized\");\n    uint version = descriptions[id].length+1;\n    descriptions[id].push(ServiceDescription(version, fileName, fileDescription, now));\n  }\n}\n",
  "sourcePath": "/Users/kanisiuskeneth/Documents/TA/dicey/backend/contracts/ServiceRegistry.sol",
  "compiler": {
    "name": "solc",
    "version": "0.5.0+commit.1d4f565a.Emscripten.clang"
  },
  "schemaVersion": "3.0.6",
  "updatedAt": "2019-07-10T22:14:40.162Z",
  "devdoc": {
    "methods": {}
  },
  "userdoc": {
    "methods": {}
  }
}